{
  "contractName": "MugenBet",
  "abi": [
    {
      "inputs": [
        {
          "internalType": "uint256",
          "name": "_r",
          "type": "uint256"
        }
      ],
      "stateMutability": "nonpayable",
      "type": "constructor"
    },
    {
      "anonymous": false,
      "inputs": [
        {
          "indexed": true,
          "internalType": "address",
          "name": "owner",
          "type": "address"
        },
        {
          "indexed": true,
          "internalType": "address",
          "name": "approved",
          "type": "address"
        },
        {
          "indexed": true,
          "internalType": "uint256",
          "name": "tokenId",
          "type": "uint256"
        }
      ],
      "name": "Approval",
      "type": "event"
    },
    {
      "anonymous": false,
      "inputs": [
        {
          "indexed": true,
          "internalType": "address",
          "name": "owner",
          "type": "address"
        },
        {
          "indexed": true,
          "internalType": "address",
          "name": "operator",
          "type": "address"
        },
        {
          "indexed": false,
          "internalType": "bool",
          "name": "approved",
          "type": "bool"
        }
      ],
      "name": "ApprovalForAll",
      "type": "event"
    },
    {
      "anonymous": false,
      "inputs": [
        {
          "indexed": false,
          "internalType": "bytes32",
          "name": "",
          "type": "bytes32"
        }
      ],
      "name": "GameOver",
      "type": "event"
    },
    {
      "anonymous": false,
      "inputs": [
        {
          "indexed": false,
          "internalType": "uint256",
          "name": "",
          "type": "uint256"
        },
        {
          "indexed": false,
          "internalType": "address",
          "name": "",
          "type": "address"
        },
        {
          "indexed": false,
          "internalType": "bytes32",
          "name": "",
          "type": "bytes32"
        }
      ],
      "name": "NewBet",
      "type": "event"
    },
    {
      "anonymous": false,
      "inputs": [
        {
          "indexed": false,
          "internalType": "address",
          "name": "",
          "type": "address"
        },
        {
          "indexed": false,
          "internalType": "bytes32",
          "name": "",
          "type": "bytes32"
        }
      ],
      "name": "NewBook",
      "type": "event"
    },
    {
      "anonymous": false,
      "inputs": [
        {
          "indexed": false,
          "internalType": "bytes32",
          "name": "",
          "type": "bytes32"
        }
      ],
      "name": "NewGame",
      "type": "event"
    },
    {
      "anonymous": false,
      "inputs": [
        {
          "indexed": true,
          "internalType": "address",
          "name": "previousOwner",
          "type": "address"
        },
        {
          "indexed": true,
          "internalType": "address",
          "name": "newOwner",
          "type": "address"
        }
      ],
      "name": "OwnershipTransferred",
      "type": "event"
    },
    {
      "anonymous": false,
      "inputs": [
        {
          "indexed": true,
          "internalType": "address",
          "name": "from",
          "type": "address"
        },
        {
          "indexed": true,
          "internalType": "address",
          "name": "to",
          "type": "address"
        },
        {
          "indexed": true,
          "internalType": "uint256",
          "name": "tokenId",
          "type": "uint256"
        }
      ],
      "name": "Transfer",
      "type": "event"
    },
    {
      "inputs": [
        {
          "internalType": "address",
          "name": "to",
          "type": "address"
        },
        {
          "internalType": "uint256",
          "name": "tokenId",
          "type": "uint256"
        }
      ],
      "name": "approve",
      "outputs": [],
      "stateMutability": "nonpayable",
      "type": "function"
    },
    {
      "inputs": [
        {
          "internalType": "address",
          "name": "owner",
          "type": "address"
        }
      ],
      "name": "balanceOf",
      "outputs": [
        {
          "internalType": "uint256",
          "name": "",
          "type": "uint256"
        }
      ],
      "stateMutability": "view",
      "type": "function",
      "constant": true
    },
    {
      "inputs": [
        {
          "internalType": "uint256",
          "name": "",
          "type": "uint256"
        }
      ],
      "name": "betTicketFromNFT",
      "outputs": [
        {
          "internalType": "bytes32",
          "name": "book",
          "type": "bytes32"
        },
        {
          "internalType": "uint256",
          "name": "option",
          "type": "uint256"
        },
        {
          "internalType": "uint256",
          "name": "payout",
          "type": "uint256"
        }
      ],
      "stateMutability": "view",
      "type": "function",
      "constant": true
    },
    {
      "inputs": [
        {
          "internalType": "bytes32",
          "name": "",
          "type": "bytes32"
        }
      ],
      "name": "books",
      "outputs": [
        {
          "internalType": "address",
          "name": "bookie",
          "type": "address"
        },
        {
          "internalType": "uint256",
          "name": "reductionRate",
          "type": "uint256"
        },
        {
          "internalType": "uint256",
          "name": "optionsCount",
          "type": "uint256"
        },
        {
          "internalType": "uint256",
          "name": "totalBets",
          "type": "uint256"
        },
        {
          "internalType": "bool",
          "name": "complete",
          "type": "bool"
        },
        {
          "internalType": "uint256",
          "name": "winner",
          "type": "uint256"
        }
      ],
      "stateMutability": "view",
      "type": "function",
      "constant": true
    },
    {
      "inputs": [
        {
          "internalType": "bytes32",
          "name": "_book",
          "type": "bytes32"
        },
        {
          "internalType": "uint256",
          "name": "_winner",
          "type": "uint256"
        }
      ],
      "name": "callBet",
      "outputs": [],
      "stateMutability": "nonpayable",
      "type": "function"
    },
    {
      "inputs": [
        {
          "internalType": "bytes32",
          "name": "_book",
          "type": "bytes32"
        }
      ],
      "name": "fundBet",
      "outputs": [],
      "stateMutability": "payable",
      "type": "function",
      "payable": true
    },
    {
      "inputs": [
        {
          "internalType": "uint256",
          "name": "tokenId",
          "type": "uint256"
        }
      ],
      "name": "getApproved",
      "outputs": [
        {
          "internalType": "address",
          "name": "",
          "type": "address"
        }
      ],
      "stateMutability": "view",
      "type": "function",
      "constant": true
    },
    {
      "inputs": [
        {
          "internalType": "bytes32",
          "name": "_book",
          "type": "bytes32"
        },
        {
          "internalType": "uint256",
          "name": "_option",
          "type": "uint256"
        },
        {
          "internalType": "uint256",
          "name": "_amount",
          "type": "uint256"
        }
      ],
      "name": "getOdds",
      "outputs": [
        {
          "internalType": "uint256",
          "name": "",
          "type": "uint256"
        }
      ],
      "stateMutability": "view",
      "type": "function",
      "constant": true
    },
    {
      "inputs": [
        {
          "internalType": "address",
          "name": "owner",
          "type": "address"
        },
        {
          "internalType": "address",
          "name": "operator",
          "type": "address"
        }
      ],
      "name": "isApprovedForAll",
      "outputs": [
        {
          "internalType": "bool",
          "name": "",
          "type": "bool"
        }
      ],
      "stateMutability": "view",
      "type": "function",
      "constant": true
    },
    {
      "inputs": [],
      "name": "name",
      "outputs": [
        {
          "internalType": "string",
          "name": "",
          "type": "string"
        }
      ],
      "stateMutability": "view",
      "type": "function",
      "constant": true
    },
    {
      "inputs": [],
      "name": "oneHundredPercent",
      "outputs": [
        {
          "internalType": "uint256",
          "name": "",
          "type": "uint256"
        }
      ],
      "stateMutability": "view",
      "type": "function",
      "constant": true
    },
    {
      "inputs": [],
      "name": "owner",
      "outputs": [
        {
          "internalType": "address",
          "name": "",
          "type": "address"
        }
      ],
      "stateMutability": "view",
      "type": "function",
      "constant": true
    },
    {
      "inputs": [
        {
          "internalType": "uint256",
          "name": "tokenId",
          "type": "uint256"
        }
      ],
      "name": "ownerOf",
      "outputs": [
        {
          "internalType": "address",
          "name": "",
          "type": "address"
        }
      ],
      "stateMutability": "view",
      "type": "function",
      "constant": true
    },
    {
      "inputs": [
        {
          "internalType": "bytes32",
          "name": "_book",
          "type": "bytes32"
        },
        {
          "internalType": "uint256",
          "name": "_option",
          "type": "uint256"
        }
      ],
      "name": "placeBet",
      "outputs": [],
      "stateMutability": "payable",
      "type": "function",
      "payable": true
    },
    {
      "inputs": [],
      "name": "renounceOwnership",
      "outputs": [],
      "stateMutability": "nonpayable",
      "type": "function"
    },
    {
      "inputs": [
        {
          "internalType": "address",
          "name": "from",
          "type": "address"
        },
        {
          "internalType": "address",
          "name": "to",
          "type": "address"
        },
        {
          "internalType": "uint256",
          "name": "tokenId",
          "type": "uint256"
        }
      ],
      "name": "safeTransferFrom",
      "outputs": [],
      "stateMutability": "nonpayable",
      "type": "function"
    },
    {
      "inputs": [
        {
          "internalType": "address",
          "name": "from",
          "type": "address"
        },
        {
          "internalType": "address",
          "name": "to",
          "type": "address"
        },
        {
          "internalType": "uint256",
          "name": "tokenId",
          "type": "uint256"
        },
        {
          "internalType": "bytes",
          "name": "_data",
          "type": "bytes"
        }
      ],
      "name": "safeTransferFrom",
      "outputs": [],
      "stateMutability": "nonpayable",
      "type": "function"
    },
    {
      "inputs": [
        {
          "internalType": "address",
          "name": "operator",
          "type": "address"
        },
        {
          "internalType": "bool",
          "name": "approved",
          "type": "bool"
        }
      ],
      "name": "setApprovalForAll",
      "outputs": [],
      "stateMutability": "nonpayable",
      "type": "function"
    },
    {
      "inputs": [
        {
          "internalType": "uint256",
          "name": "ticket",
          "type": "uint256"
        }
      ],
      "name": "settleBet",
      "outputs": [],
      "stateMutability": "nonpayable",
      "type": "function"
    },
    {
      "inputs": [
        {
          "internalType": "bytes4",
          "name": "interfaceId",
          "type": "bytes4"
        }
      ],
      "name": "supportsInterface",
      "outputs": [
        {
          "internalType": "bool",
          "name": "",
          "type": "bool"
        }
      ],
      "stateMutability": "view",
      "type": "function",
      "constant": true
    },
    {
      "inputs": [],
      "name": "symbol",
      "outputs": [
        {
          "internalType": "string",
          "name": "",
          "type": "string"
        }
      ],
      "stateMutability": "view",
      "type": "function",
      "constant": true
    },
    {
      "inputs": [
        {
          "internalType": "uint256",
          "name": "tokenId",
          "type": "uint256"
        }
      ],
      "name": "tokenURI",
      "outputs": [
        {
          "internalType": "string",
          "name": "",
          "type": "string"
        }
      ],
      "stateMutability": "view",
      "type": "function",
      "constant": true
    },
    {
      "inputs": [
        {
          "internalType": "address",
          "name": "from",
          "type": "address"
        },
        {
          "internalType": "address",
          "name": "to",
          "type": "address"
        },
        {
          "internalType": "uint256",
          "name": "tokenId",
          "type": "uint256"
        }
      ],
      "name": "transferFrom",
      "outputs": [],
      "stateMutability": "nonpayable",
      "type": "function"
    },
    {
      "inputs": [
        {
          "internalType": "address",
          "name": "newOwner",
          "type": "address"
        }
      ],
      "name": "transferOwnership",
      "outputs": [],
      "stateMutability": "nonpayable",
      "type": "function"
    },
    {
      "inputs": [],
      "name": "newGame",
      "outputs": [],
      "stateMutability": "nonpayable",
      "type": "function"
    },
    {
      "inputs": [
        {
          "internalType": "bytes32",
          "name": "_book",
          "type": "bytes32"
        },
        {
          "internalType": "uint256",
          "name": "_winner",
          "type": "uint256"
        }
      ],
      "name": "settleGame",
      "outputs": [],
      "stateMutability": "nonpayable",
      "type": "function"
    },
    {
      "inputs": [
        {
          "internalType": "bytes32",
          "name": "_game",
          "type": "bytes32"
        }
      ],
      "name": "getFirsttwoAmounts",
      "outputs": [
        {
          "internalType": "uint256",
          "name": "",
          "type": "uint256"
        },
        {
          "internalType": "uint256",
          "name": "",
          "type": "uint256"
        }
      ],
      "stateMutability": "view",
      "type": "function",
      "constant": true
    }
  ],
  "bytecode": "0x60a060405260006006553480156200001657600080fd5b5060405162004bfe38038062004bfe83398181016040528101906200003c91906200026b565b6040518060400160405280600e81526020017f42657474696e67205469636b65740000000000000000000000000000000000008152506040518060400160405280600381526020017f42455400000000000000000000000000000000000000000000000000000000008152508160009080519060200190620000c0929190620001a4565b508060019080519060200190620000d9929190620001a4565b5050506000620000ee6200019c60201b60201c565b905080600960006101000a81548173ffffffffffffffffffffffffffffffffffffffff021916908373ffffffffffffffffffffffffffffffffffffffff1602179055508073ffffffffffffffffffffffffffffffffffffffff16600073ffffffffffffffffffffffffffffffffffffffff167f8be0079c531659141344cd1fd0a4f28419497f9722a3daafe3b4186f6b6457e060405160405180910390a35080608081815250505062000320565b600033905090565b828054620001b290620002a1565b90600052602060002090601f016020900481019282620001d6576000855562000222565b82601f10620001f157805160ff191683800117855562000222565b8280016001018555821562000222579182015b828111156200022157825182559160200191906001019062000204565b5b50905062000231919062000235565b5090565b5b808211156200025057600081600090555060010162000236565b5090565b600081519050620002658162000306565b92915050565b6000602082840312156200027e57600080fd5b60006200028e8482850162000254565b91505092915050565b6000819050919050565b60006002820490506001821680620002ba57607f821691505b60208210811415620002d157620002d0620002d7565b5b50919050565b7f4e487b7100000000000000000000000000000000000000000000000000000000600052602260045260246000fd5b620003118162000297565b81146200031d57600080fd5b50565b6080516148c26200033c600039600061133701526148c26000f3fe60806040526004361061019c5760003560e01c8063726e0320116100ec578063a22cb4651161008a578063c87b56dd11610064578063c87b56dd146105cf578063e985e9c51461060c578063f2fde38b14610649578063f3118d8e146106725761019c565b8063a22cb46514610554578063b05f36d31461057d578063b88d4fde146105a65761019c565b806381007391116100c65780638100739114610483578063895f4c60146104c05780638da5cb5b146104fe57806395d89b41146105295761019c565b8063726e0320146104045780637bab25d11461042d5780637d03f5f31461046c5761019c565b806316fd381a1161015957806342842e0e1161013357806342842e0e1461034a5780636352211e1461037357806370a08231146103b0578063715018a6146103ed5761019c565b806316fd381a146102cd57806323b872dd146102f657806334913f281461031f5761019c565b806301ffc9a7146101a157806306fdde03146101de578063081812fc14610209578063095ea7b3146102465780630c0dee701461026f578063154048ab146102b1575b600080fd5b3480156101ad57600080fd5b506101c860048036038101906101c3919061313e565b61068e565b6040516101d591906137eb565b60405180910390f35b3480156101ea57600080fd5b506101f3610770565b6040516102009190613858565b60405180910390f35b34801561021557600080fd5b50610230600480360381019061022b9190613190565b610802565b60405161023d91906136fa565b60405180910390f35b34801561025257600080fd5b5061026d6004803603810190610268919061304e565b610887565b005b34801561027b57600080fd5b506102966004803603810190610291919061308a565b61099f565b6040516102a89695949392919061378a565b60405180910390f35b6102cb60048036038101906102c6919061308a565b610a08565b005b3480156102d957600080fd5b506102f460048036038101906102ef9190613190565b610ba3565b005b34801561030257600080fd5b5061031d60048036038101906103189190612f48565b610d14565b005b34801561032b57600080fd5b50610334610d74565b6040516103419190613bda565b60405180910390f35b34801561035657600080fd5b50610371600480360381019061036c9190612f48565b610d7a565b005b34801561037f57600080fd5b5061039a60048036038101906103959190613190565b610d9a565b6040516103a791906136fa565b60405180910390f35b3480156103bc57600080fd5b506103d760048036038101906103d29190612ee3565b610e4c565b6040516103e49190613bda565b60405180910390f35b3480156103f957600080fd5b50610402610f04565b005b34801561041057600080fd5b5061042b600480360381019061042691906130b3565b611041565b005b34801561043957600080fd5b50610454600480360381019061044f9190613190565b611287565b60405161046393929190613821565b60405180910390f35b34801561047857600080fd5b506104816112b1565b005b34801561048f57600080fd5b506104aa60048036038101906104a591906130ef565b6113c0565b6040516104b79190613bda565b60405180910390f35b3480156104cc57600080fd5b506104e760048036038101906104e2919061308a565b611517565b6040516104f5929190613c2c565b60405180910390f35b34801561050a57600080fd5b506105136115d7565b60405161052091906136fa565b60405180910390f35b34801561053557600080fd5b5061053e611601565b60405161054b9190613858565b60405180910390f35b34801561056057600080fd5b5061057b60048036038101906105769190613012565b611693565b005b34801561058957600080fd5b506105a4600480360381019061059f91906130b3565b611814565b005b3480156105b257600080fd5b506105cd60048036038101906105c89190612f97565b6118d5565b005b3480156105db57600080fd5b506105f660048036038101906105f19190613190565b611937565b6040516106039190613858565b60405180910390f35b34801561061857600080fd5b50610633600480360381019061062e9190612f0c565b6119de565b60405161064091906137eb565b60405180910390f35b34801561065557600080fd5b50610670600480360381019061066b9190612ee3565b611a72565b005b61068c600480360381019061068791906130b3565b611c1e565b005b60007f80ac58cd000000000000000000000000000000000000000000000000000000007bffffffffffffffffffffffffffffffffffffffffffffffffffffffff1916827bffffffffffffffffffffffffffffffffffffffffffffffffffffffff1916148061075957507f5b5e139f000000000000000000000000000000000000000000000000000000007bffffffffffffffffffffffffffffffffffffffffffffffffffffffff1916827bffffffffffffffffffffffffffffffffffffffffffffffffffffffff1916145b80610769575061076882611c2e565b5b9050919050565b60606000805461077f90613ec3565b80601f01602080910402602001604051908101604052809291908181526020018280546107ab90613ec3565b80156107f85780601f106107cd576101008083540402835291602001916107f8565b820191906000526020600020905b8154815290600101906020018083116107db57829003601f168201915b5050505050905090565b600061080d82611c98565b61084c576040517f08c379a000000000000000000000000000000000000000000000000000000000815260040161084390613a7a565b60405180910390fd5b6004600083815260200190815260200160002060009054906101000a900473ffffffffffffffffffffffffffffffffffffffff169050919050565b600061089282610d9a565b90508073ffffffffffffffffffffffffffffffffffffffff168373ffffffffffffffffffffffffffffffffffffffff161415610903576040517f08c379a00000000000000000000000000000000000000000000000000000000081526004016108fa90613b3a565b60405180910390fd5b8073ffffffffffffffffffffffffffffffffffffffff16610922611d04565b73ffffffffffffffffffffffffffffffffffffffff16148061095157506109508161094b611d04565b6119de565b5b610990576040517f08c379a0000000000000000000000000000000000000000000000000000000008152600401610987906139fa565b60405180910390fd5b61099a8383611d0c565b505050565b60086020528060005260406000206000915090508060000160009054906101000a900473ffffffffffffffffffffffffffffffffffffffff16908060010154908060040154908060050154908060060160009054906101000a900460ff16908060070154905086565b6008600082815260200190815260200160002060000160009054906101000a900473ffffffffffffffffffffffffffffffffffffffff1673ffffffffffffffffffffffffffffffffffffffff163373ffffffffffffffffffffffffffffffffffffffff1614610aac576040517f08c379a0000000000000000000000000000000000000000000000000000000008152600401610aa390613b1a565b60405180910390fd5b600080600860008481526020019081526020016000206004015434610ad19190613d44565b905060018111610b16576040517f08c379a0000000000000000000000000000000000000000000000000000000008152600401610b0d90613b9a565b60405180910390fd5b60005b60016008600086815260200190815260200160002060040154610b3c9190613dcf565b811015610b70578183610b4f9190613cee565b9250610b5d33858385611dc5565b8080610b6890613f26565b915050610b19565b50610b9e338460086000878152602001908152602001600020600401548534610b999190613dcf565b611dc5565b505050565b600860006007600084815260200190815260200160002060000154815260200190815260200160002060060160009054906101000a900460ff16610c1c576040517f08c379a0000000000000000000000000000000000000000000000000000000008152600401610c139061387a565b60405180910390fd5b600760008281526020019081526020016000206001015460086000600760008581526020019081526020016000206000015481526020019081526020016000206007015414610ca0576040517f08c379a0000000000000000000000000000000000000000000000000000000008152600401610c979061399a565b60405180910390fd5b610cab333083610d14565b610cb481611ff0565b3373ffffffffffffffffffffffffffffffffffffffff166108fc60076000848152602001908152602001600020600201549081150290604051600060405180830381858888f19350505050158015610d10573d6000803e3d6000fd5b5050565b610d25610d1f611d04565b82612101565b610d64576040517f08c379a0000000000000000000000000000000000000000000000000000000008152600401610d5b90613b7a565b60405180910390fd5b610d6f8383836121df565b505050565b61271081565b610d95838383604051806020016040528060008152506118d5565b505050565b6000806002600084815260200190815260200160002060009054906101000a900473ffffffffffffffffffffffffffffffffffffffff169050600073ffffffffffffffffffffffffffffffffffffffff168173ffffffffffffffffffffffffffffffffffffffff161415610e43576040517f08c379a0000000000000000000000000000000000000000000000000000000008152600401610e3a90613a3a565b60405180910390fd5b80915050919050565b60008073ffffffffffffffffffffffffffffffffffffffff168273ffffffffffffffffffffffffffffffffffffffff161415610ebd576040517f08c379a0000000000000000000000000000000000000000000000000000000008152600401610eb490613a1a565b60405180910390fd5b600360008373ffffffffffffffffffffffffffffffffffffffff1673ffffffffffffffffffffffffffffffffffffffff168152602001908152602001600020549050919050565b610f0c611d04565b73ffffffffffffffffffffffffffffffffffffffff16610f2a6115d7565b73ffffffffffffffffffffffffffffffffffffffff1614610f80576040517f08c379a0000000000000000000000000000000000000000000000000000000008152600401610f7790613a9a565b60405180910390fd5b600073ffffffffffffffffffffffffffffffffffffffff16600960009054906101000a900473ffffffffffffffffffffffffffffffffffffffff1673ffffffffffffffffffffffffffffffffffffffff167f8be0079c531659141344cd1fd0a4f28419497f9722a3daafe3b4186f6b6457e060405160405180910390a36000600960006101000a81548173ffffffffffffffffffffffffffffffffffffffff021916908373ffffffffffffffffffffffffffffffffffffffff160217905550565b60086000838152602001908152602001600020600401548110611099576040517f08c379a0000000000000000000000000000000000000000000000000000000008152600401611090906138da565b60405180910390fd5b6008600083815260200190815260200160002060000160009054906101000a900473ffffffffffffffffffffffffffffffffffffffff1673ffffffffffffffffffffffffffffffffffffffff163373ffffffffffffffffffffffffffffffffffffffff161461113d576040517f08c379a000000000000000000000000000000000000000000000000000000000815260040161113490613aba565b60405180910390fd5b80600860008481526020019081526020016000206007018190555060016008600084815260200190815260200160002060060160006101000a81548160ff02191690831515021790555060006008600084815260200190815260200160002060030182815481106111d7577f4e487b7100000000000000000000000000000000000000000000000000000000600052603260045260246000fd5b906000526020600020015460086000858152602001908152602001600020600501546112039190613dcf565b90506008600084815260200190815260200160002060000160009054906101000a900473ffffffffffffffffffffffffffffffffffffffff1673ffffffffffffffffffffffffffffffffffffffff166108fc829081150290604051600060405180830381858888f19350505050158015611281573d6000803e3d6000fd5b50505050565b60076020528060005260406000206000915090508060000154908060010154908060020154905083565b6112b9611d04565b73ffffffffffffffffffffffffffffffffffffffff166112d76115d7565b73ffffffffffffffffffffffffffffffffffffffff161461132d576040517f08c379a000000000000000000000000000000000000000000000000000000000815260040161132490613a9a565b60405180910390fd5b600061135b3060027f000000000000000000000000000000000000000000000000000000000000000061243b565b9050600a8190806001815401808255809150506001900390600052602060002001600090919091909150557f7f1103ce4bef3a709dfee84e767c11461b2485804077e344206d760d290dbf6e816040516113b59190613806565b60405180910390a150565b60008260086000868152602001908152602001600020600401541161141a576040517f08c379a00000000000000000000000000000000000000000000000000000000081526004016114119061397a565b60405180910390fd5b60006008600086815260200190815260200160002090506000816005015414156114475782915050611510565b61271080826002018681548110611487577f4e487b7100000000000000000000000000000000000000000000000000000000600052603260045260246000fd5b90600052602060002001548561149d9190613cee565b6127108685600501546114b09190613cee565b6127106114bd9190613d75565b6114c79190613d44565b6114d19190613d75565b83600101546127106114e39190613dcf565b866114ee9190613d75565b6114f89190613d75565b6115029190613d44565b61150c9190613d44565b9150505b9392505050565b60008060086000848152602001908152602001600020600201600081548110611569577f4e487b7100000000000000000000000000000000000000000000000000000000600052603260045260246000fd5b9060005260206000200154600860008581526020019081526020016000206002016001815481106115c3577f4e487b7100000000000000000000000000000000000000000000000000000000600052603260045260246000fd5b906000526020600020015491509150915091565b6000600960009054906101000a900473ffffffffffffffffffffffffffffffffffffffff16905090565b60606001805461161090613ec3565b80601f016020809104026020016040519081016040528092919081815260200182805461163c90613ec3565b80156116895780601f1061165e57610100808354040283529160200191611689565b820191906000526020600020905b81548152906001019060200180831161166c57829003601f168201915b5050505050905090565b61169b611d04565b73ffffffffffffffffffffffffffffffffffffffff168273ffffffffffffffffffffffffffffffffffffffff161415611709576040517f08c379a00000000000000000000000000000000000000000000000000000000081526004016117009061395a565b60405180910390fd5b8060056000611716611d04565b73ffffffffffffffffffffffffffffffffffffffff1673ffffffffffffffffffffffffffffffffffffffff16815260200190815260200160002060008473ffffffffffffffffffffffffffffffffffffffff1673ffffffffffffffffffffffffffffffffffffffff16815260200190815260200160002060006101000a81548160ff0219169083151502179055508173ffffffffffffffffffffffffffffffffffffffff166117c3611d04565b73ffffffffffffffffffffffffffffffffffffffff167f17307eab39ab6107e8899845ad3d59bd9653f200f220920489ca2b5937696c318360405161180891906137eb565b60405180910390a35050565b61181c611d04565b73ffffffffffffffffffffffffffffffffffffffff1661183a6115d7565b73ffffffffffffffffffffffffffffffffffffffff1614611890576040517f08c379a000000000000000000000000000000000000000000000000000000000815260040161188790613a9a565b60405180910390fd5b61189a8282611041565b7f91b1d9fd53e8776eb533dbd2e22df2706ae9f1d11352e0e452f300981f04f4c1826040516118c99190613806565b60405180910390a15050565b6118e66118e0611d04565b83612101565b611925576040517f08c379a000000000000000000000000000000000000000000000000000000000815260040161191c90613b7a565b60405180910390fd5b611931848484846127f6565b50505050565b606061194282611c98565b611981576040517f08c379a000000000000000000000000000000000000000000000000000000000815260040161197890613afa565b60405180910390fd5b600061198b612852565b905060008151116119ab57604051806020016040528060008152506119d6565b806119b584612869565b6040516020016119c69291906136d6565b6040516020818303038152906040525b915050919050565b6000600560008473ffffffffffffffffffffffffffffffffffffffff1673ffffffffffffffffffffffffffffffffffffffff16815260200190815260200160002060008373ffffffffffffffffffffffffffffffffffffffff1673ffffffffffffffffffffffffffffffffffffffff16815260200190815260200160002060009054906101000a900460ff16905092915050565b611a7a611d04565b73ffffffffffffffffffffffffffffffffffffffff16611a986115d7565b73ffffffffffffffffffffffffffffffffffffffff1614611aee576040517f08c379a0000000000000000000000000000000000000000000000000000000008152600401611ae590613a9a565b60405180910390fd5b600073ffffffffffffffffffffffffffffffffffffffff168173ffffffffffffffffffffffffffffffffffffffff161415611b5e576040517f08c379a0000000000000000000000000000000000000000000000000000000008152600401611b55906138ba565b60405180910390fd5b8073ffffffffffffffffffffffffffffffffffffffff16600960009054906101000a900473ffffffffffffffffffffffffffffffffffffffff1673ffffffffffffffffffffffffffffffffffffffff167f8be0079c531659141344cd1fd0a4f28419497f9722a3daafe3b4186f6b6457e060405160405180910390a380600960006101000a81548173ffffffffffffffffffffffffffffffffffffffff021916908373ffffffffffffffffffffffffffffffffffffffff16021790555050565b611c2a33838334611dc5565b5050565b60007f01ffc9a7000000000000000000000000000000000000000000000000000000007bffffffffffffffffffffffffffffffffffffffffffffffffffffffff1916827bffffffffffffffffffffffffffffffffffffffffffffffffffffffff1916149050919050565b60008073ffffffffffffffffffffffffffffffffffffffff166002600084815260200190815260200160002060009054906101000a900473ffffffffffffffffffffffffffffffffffffffff1673ffffffffffffffffffffffffffffffffffffffff1614159050919050565b600033905090565b816004600083815260200190815260200160002060006101000a81548173ffffffffffffffffffffffffffffffffffffffff021916908373ffffffffffffffffffffffffffffffffffffffff160217905550808273ffffffffffffffffffffffffffffffffffffffff16611d7f83610d9a565b73ffffffffffffffffffffffffffffffffffffffff167f8c5be1e5ebec7d5bd14f71427d1e84f3dd0314c0f7b2291e5b200ac8c7c3b92560405160405180910390a45050565b81600860008581526020019081526020016000206004015411611e1d576040517f08c379a0000000000000000000000000000000000000000000000000000000008152600401611e1490613bba565b60405180910390fd5b611e2984600654612a16565b6000611e368484846113c0565b905060405180606001604052808581526020018481526020018281525060076000600654815260200190815260200160002060008201518160000155602082015181600101556040820151816002015590505081600860008681526020019081526020016000206005016000828254611eaf9190613cee565b9250508190555081600860008681526020019081526020016000206002018481548110611f05577f4e487b7100000000000000000000000000000000000000000000000000000000600052603260045260246000fd5b906000526020600020016000828254611f1e9190613cee565b9250508190555080600860008681526020019081526020016000206003018481548110611f74577f4e487b7100000000000000000000000000000000000000000000000000000000600052603260045260246000fd5b906000526020600020016000828254611f8d9190613cee565b925050819055507f8fc9c4f9d6b36166b3dc0bcc4428f588ac64079e040b0623594709ccaceeac046006548686604051611fc993929190613bf5565b60405180910390a160066000815480929190611fe490613f26565b91905055505050505050565b6000611ffb82610d9a565b905061200981600084612be4565b612014600083611d0c565b6001600360008373ffffffffffffffffffffffffffffffffffffffff1673ffffffffffffffffffffffffffffffffffffffff16815260200190815260200160002060008282546120649190613dcf565b925050819055506002600083815260200190815260200160002060006101000a81549073ffffffffffffffffffffffffffffffffffffffff021916905581600073ffffffffffffffffffffffffffffffffffffffff168273ffffffffffffffffffffffffffffffffffffffff167fddf252ad1be2c89b69c2b068fc378daa952ba7f163c4a11628f55a4df523b3ef60405160405180910390a45050565b600061210c82611c98565b61214b576040517f08c379a0000000000000000000000000000000000000000000000000000000008152600401612142906139ba565b60405180910390fd5b600061215683610d9a565b90508073ffffffffffffffffffffffffffffffffffffffff168473ffffffffffffffffffffffffffffffffffffffff1614806121c557508373ffffffffffffffffffffffffffffffffffffffff166121ad84610802565b73ffffffffffffffffffffffffffffffffffffffff16145b806121d657506121d581856119de565b5b91505092915050565b8273ffffffffffffffffffffffffffffffffffffffff166121ff82610d9a565b73ffffffffffffffffffffffffffffffffffffffff1614612255576040517f08c379a000000000000000000000000000000000000000000000000000000000815260040161224c90613ada565b60405180910390fd5b600073ffffffffffffffffffffffffffffffffffffffff168273ffffffffffffffffffffffffffffffffffffffff1614156122c5576040517f08c379a00000000000000000000000000000000000000000000000000000000081526004016122bc9061393a565b60405180910390fd5b6122d0838383612be4565b6122db600082611d0c565b6001600360008573ffffffffffffffffffffffffffffffffffffffff1673ffffffffffffffffffffffffffffffffffffffff168152602001908152602001600020600082825461232b9190613dcf565b925050819055506001600360008473ffffffffffffffffffffffffffffffffffffffff1673ffffffffffffffffffffffffffffffffffffffff16815260200190815260200160002060008282546123829190613cee565b92505081905550816002600083815260200190815260200160002060006101000a81548173ffffffffffffffffffffffffffffffffffffffff021916908373ffffffffffffffffffffffffffffffffffffffff160217905550808273ffffffffffffffffffffffffffffffffffffffff168473ffffffffffffffffffffffffffffffffffffffff167fddf252ad1be2c89b69c2b068fc378daa952ba7f163c4a11628f55a4df523b3ef60405160405180910390a4505050565b60006127108210612481576040517f08c379a0000000000000000000000000000000000000000000000000000000008152600401612478906139da565b60405180910390fd5b600183116124c4576040517f08c379a00000000000000000000000000000000000000000000000000000000081526004016124bb90613b5a565b60405180910390fd5b60006040518061010001604052808673ffffffffffffffffffffffffffffffffffffffff1681526020018481526020018567ffffffffffffffff811115612534577f4e487b7100000000000000000000000000000000000000000000000000000000600052604160045260246000fd5b6040519080825280602002602001820160405280156125625781602001602082028036833780820191505090505b5081526020018567ffffffffffffffff8111156125a8577f4e487b7100000000000000000000000000000000000000000000000000000000600052604160045260246000fd5b6040519080825280602002602001820160405280156125d65781602001602082028036833780820191505090505b508152602001858152602001600081526020016000151581526020016000815250905060008584863342604051602001612614959493929190613677565b604051602081830303815290604052805190602001209050600073ffffffffffffffffffffffffffffffffffffffff166008600083815260200190815260200160002060000160009054906101000a900473ffffffffffffffffffffffffffffffffffffffff1673ffffffffffffffffffffffffffffffffffffffff16146126d1576040517f08c379a00000000000000000000000000000000000000000000000000000000081526004016126c89061391a565b60405180910390fd5b816008600083815260200190815260200160002060008201518160000160006101000a81548173ffffffffffffffffffffffffffffffffffffffff021916908373ffffffffffffffffffffffffffffffffffffffff160217905550602082015181600101556040820151816002019080519060200190612752929190612d93565b50606082015181600301908051906020019061276f929190612d93565b506080820151816004015560a0820151816005015560c08201518160060160006101000a81548160ff02191690831515021790555060e082015181600701559050507fbc339e5933ac6a883787f7b4e2f57ebc7cdbbb4f6a23a30cd8c7b18c8acb593b86826040516127e2929190613761565b60405180910390a180925050509392505050565b6128018484846121df565b61280d84848484612be9565b61284c576040517f08c379a00000000000000000000000000000000000000000000000000000000081526004016128439061389a565b60405180910390fd5b50505050565b606060405180602001604052806000815250905090565b606060008214156128b1576040518060400160405280600181526020017f30000000000000000000000000000000000000000000000000000000000000008152509050612a11565b600082905060005b600082146128e35780806128cc90613f26565b915050600a826128dc9190613d44565b91506128b9565b60008167ffffffffffffffff811115612925577f4e487b7100000000000000000000000000000000000000000000000000000000600052604160045260246000fd5b6040519080825280601f01601f1916602001820160405280156129575781602001600182028036833780820191505090505b5090505b60008514612a0a576001826129709190613dcf565b9150600a8561297f9190613f9d565b603061298b9190613cee565b60f81b8183815181106129c7577f4e487b7100000000000000000000000000000000000000000000000000000000600052603260045260246000fd5b60200101907effffffffffffffffffffffffffffffffffffffffffffffffffffffffffffff1916908160001a905350600a85612a039190613d44565b945061295b565b8093505050505b919050565b600073ffffffffffffffffffffffffffffffffffffffff168273ffffffffffffffffffffffffffffffffffffffff161415612a86576040517f08c379a0000000000000000000000000000000000000000000000000000000008152600401612a7d90613a5a565b60405180910390fd5b612a8f81611c98565b15612acf576040517f08c379a0000000000000000000000000000000000000000000000000000000008152600401612ac6906138fa565b60405180910390fd5b612adb60008383612be4565b6001600360008473ffffffffffffffffffffffffffffffffffffffff1673ffffffffffffffffffffffffffffffffffffffff1681526020019081526020016000206000828254612b2b9190613cee565b92505081905550816002600083815260200190815260200160002060006101000a81548173ffffffffffffffffffffffffffffffffffffffff021916908373ffffffffffffffffffffffffffffffffffffffff160217905550808273ffffffffffffffffffffffffffffffffffffffff16600073ffffffffffffffffffffffffffffffffffffffff167fddf252ad1be2c89b69c2b068fc378daa952ba7f163c4a11628f55a4df523b3ef60405160405180910390a45050565b505050565b6000612c0a8473ffffffffffffffffffffffffffffffffffffffff16612d80565b15612d73578373ffffffffffffffffffffffffffffffffffffffff1663150b7a02612c33611d04565b8786866040518563ffffffff1660e01b8152600401612c559493929190613715565b602060405180830381600087803b158015612c6f57600080fd5b505af1925050508015612ca057506040513d601f19601f82011682018060405250810190612c9d9190613167565b60015b612d23573d8060008114612cd0576040519150601f19603f3d011682016040523d82523d6000602084013e612cd5565b606091505b50600081511415612d1b576040517f08c379a0000000000000000000000000000000000000000000000000000000008152600401612d129061389a565b60405180910390fd5b805181602001fd5b63150b7a0260e01b7bffffffffffffffffffffffffffffffffffffffffffffffffffffffff1916817bffffffffffffffffffffffffffffffffffffffffffffffffffffffff191614915050612d78565b600190505b949350505050565b600080823b905060008111915050919050565b828054828255906000526020600020908101928215612dcf579160200282015b82811115612dce578251825591602001919060010190612db3565b5b509050612ddc9190612de0565b5090565b5b80821115612df9576000816000905550600101612de1565b5090565b6000612e10612e0b84613c7a565b613c55565b905082815260208101848484011115612e2857600080fd5b612e33848285613e81565b509392505050565b600081359050612e4a81614819565b92915050565b600081359050612e5f81614830565b92915050565b600081359050612e7481614847565b92915050565b600081359050612e898161485e565b92915050565b600081519050612e9e8161485e565b92915050565b600082601f830112612eb557600080fd5b8135612ec5848260208601612dfd565b91505092915050565b600081359050612edd81614875565b92915050565b600060208284031215612ef557600080fd5b6000612f0384828501612e3b565b91505092915050565b60008060408385031215612f1f57600080fd5b6000612f2d85828601612e3b565b9250506020612f3e85828601612e3b565b9150509250929050565b600080600060608486031215612f5d57600080fd5b6000612f6b86828701612e3b565b9350506020612f7c86828701612e3b565b9250506040612f8d86828701612ece565b9150509250925092565b60008060008060808587031215612fad57600080fd5b6000612fbb87828801612e3b565b9450506020612fcc87828801612e3b565b9350506040612fdd87828801612ece565b925050606085013567ffffffffffffffff811115612ffa57600080fd5b61300687828801612ea4565b91505092959194509250565b6000806040838503121561302557600080fd5b600061303385828601612e3b565b925050602061304485828601612e50565b9150509250929050565b6000806040838503121561306157600080fd5b600061306f85828601612e3b565b925050602061308085828601612ece565b9150509250929050565b60006020828403121561309c57600080fd5b60006130aa84828501612e65565b91505092915050565b600080604083850312156130c657600080fd5b60006130d485828601612e65565b92505060206130e585828601612ece565b9150509250929050565b60008060006060848603121561310457600080fd5b600061311286828701612e65565b935050602061312386828701612ece565b925050604061313486828701612ece565b9150509250925092565b60006020828403121561315057600080fd5b600061315e84828501612e7a565b91505092915050565b60006020828403121561317957600080fd5b600061318784828501612e8f565b91505092915050565b6000602082840312156131a257600080fd5b60006131b084828501612ece565b91505092915050565b6131c281613e03565b82525050565b6131d96131d482613e03565b613f6f565b82525050565b6131e881613e15565b82525050565b6131f781613e21565b82525050565b600061320882613cab565b6132128185613cc1565b9350613222818560208601613e90565b61322b8161408a565b840191505092915050565b600061324182613cb6565b61324b8185613cd2565b935061325b818560208601613e90565b6132648161408a565b840191505092915050565b600061327a82613cb6565b6132848185613ce3565b9350613294818560208601613e90565b80840191505092915050565b60006132ad601483613cd2565b91506132b8826140a8565b602082019050919050565b60006132d0603283613cd2565b91506132db826140d1565b604082019050919050565b60006132f3602683613cd2565b91506132fe82614120565b604082019050919050565b6000613316601d83613cd2565b91506133218261416f565b602082019050919050565b6000613339601c83613cd2565b915061334482614198565b602082019050919050565b600061335c607483613cd2565b9150613367826141c1565b608082019050919050565b600061337f602483613cd2565b915061338a8261425c565b604082019050919050565b60006133a2601983613cd2565b91506133ad826142ab565b602082019050919050565b60006133c5602583613cd2565b91506133d0826142d4565b604082019050919050565b60006133e8601b83613cd2565b91506133f382614323565b602082019050919050565b600061340b602c83613cd2565b91506134168261434c565b604082019050919050565b600061342e602783613cd2565b91506134398261439b565b604082019050919050565b6000613451603883613cd2565b915061345c826143ea565b604082019050919050565b6000613474602a83613cd2565b915061347f82614439565b604082019050919050565b6000613497602983613cd2565b91506134a282614488565b604082019050919050565b60006134ba602083613cd2565b91506134c5826144d7565b602082019050919050565b60006134dd602c83613cd2565b91506134e882614500565b604082019050919050565b6000613500602083613cd2565b915061350b8261454f565b602082019050919050565b6000613523602283613cd2565b915061352e82614578565b604082019050919050565b6000613546602983613cd2565b9150613551826145c7565b604082019050919050565b6000613569602f83613cd2565b915061357482614616565b604082019050919050565b600061358c602d83613cd2565b915061359782614665565b604082019050919050565b60006135af602183613cd2565b91506135ba826146b4565b604082019050919050565b60006135d2602683613cd2565b91506135dd82614703565b604082019050919050565b60006135f5603183613cd2565b915061360082614752565b604082019050919050565b6000613618602883613cd2565b9150613623826147a1565b604082019050919050565b600061363b601a83613cd2565b9150613646826147f0565b602082019050919050565b61365a81613e77565b82525050565b61367161366c82613e77565b613f93565b82525050565b600061368382886131c8565b6014820191506136938287613660565b6020820191506136a38286613660565b6020820191506136b382856131c8565b6014820191506136c38284613660565b6020820191508190509695505050505050565b60006136e2828561326f565b91506136ee828461326f565b91508190509392505050565b600060208201905061370f60008301846131b9565b92915050565b600060808201905061372a60008301876131b9565b61373760208301866131b9565b6137446040830185613651565b818103606083015261375681846131fd565b905095945050505050565b600060408201905061377660008301856131b9565b61378360208301846131ee565b9392505050565b600060c08201905061379f60008301896131b9565b6137ac6020830188613651565b6137b96040830187613651565b6137c66060830186613651565b6137d360808301856131df565b6137e060a0830184613651565b979650505050505050565b600060208201905061380060008301846131df565b92915050565b600060208201905061381b60008301846131ee565b92915050565b600060608201905061383660008301866131ee565b6138436020830185613651565b6138506040830184613651565b949350505050565b600060208201905081810360008301526138728184613236565b905092915050565b60006020820190508181036000830152613893816132a0565b9050919050565b600060208201905081810360008301526138b3816132c3565b9050919050565b600060208201905081810360008301526138d3816132e6565b9050919050565b600060208201905081810360008301526138f381613309565b9050919050565b600060208201905081810360008301526139138161332c565b9050919050565b600060208201905081810360008301526139338161334f565b9050919050565b6000602082019050818103600083015261395381613372565b9050919050565b6000602082019050818103600083015261397381613395565b9050919050565b60006020820190508181036000830152613993816133b8565b9050919050565b600060208201905081810360008301526139b3816133db565b9050919050565b600060208201905081810360008301526139d3816133fe565b9050919050565b600060208201905081810360008301526139f381613421565b9050919050565b60006020820190508181036000830152613a1381613444565b9050919050565b60006020820190508181036000830152613a3381613467565b9050919050565b60006020820190508181036000830152613a538161348a565b9050919050565b60006020820190508181036000830152613a73816134ad565b9050919050565b60006020820190508181036000830152613a93816134d0565b9050919050565b60006020820190508181036000830152613ab3816134f3565b9050919050565b60006020820190508181036000830152613ad381613516565b9050919050565b60006020820190508181036000830152613af381613539565b9050919050565b60006020820190508181036000830152613b138161355c565b9050919050565b60006020820190508181036000830152613b338161357f565b9050919050565b60006020820190508181036000830152613b53816135a2565b9050919050565b60006020820190508181036000830152613b73816135c5565b9050919050565b60006020820190508181036000830152613b93816135e8565b9050919050565b60006020820190508181036000830152613bb38161360b565b9050919050565b60006020820190508181036000830152613bd38161362e565b9050919050565b6000602082019050613bef6000830184613651565b92915050565b6000606082019050613c0a6000830186613651565b613c1760208301856131b9565b613c2460408301846131ee565b949350505050565b6000604082019050613c416000830185613651565b613c4e6020830184613651565b9392505050565b6000613c5f613c70565b9050613c6b8282613ef5565b919050565b6000604051905090565b600067ffffffffffffffff821115613c9557613c9461405b565b5b613c9e8261408a565b9050602081019050919050565b600081519050919050565b600081519050919050565b600082825260208201905092915050565b600082825260208201905092915050565b600081905092915050565b6000613cf982613e77565b9150613d0483613e77565b9250827fffffffffffffffffffffffffffffffffffffffffffffffffffffffffffffffff03821115613d3957613d38613fce565b5b828201905092915050565b6000613d4f82613e77565b9150613d5a83613e77565b925082613d6a57613d69613ffd565b5b828204905092915050565b6000613d8082613e77565b9150613d8b83613e77565b9250817fffffffffffffffffffffffffffffffffffffffffffffffffffffffffffffffff0483118215151615613dc457613dc3613fce565b5b828202905092915050565b6000613dda82613e77565b9150613de583613e77565b925082821015613df857613df7613fce565b5b828203905092915050565b6000613e0e82613e57565b9050919050565b60008115159050919050565b6000819050919050565b60007fffffffff0000000000000000000000000000000000000000000000000000000082169050919050565b600073ffffffffffffffffffffffffffffffffffffffff82169050919050565b6000819050919050565b82818337600083830152505050565b60005b83811015613eae578082015181840152602081019050613e93565b83811115613ebd576000848401525b50505050565b60006002820490506001821680613edb57607f821691505b60208210811415613eef57613eee61402c565b5b50919050565b613efe8261408a565b810181811067ffffffffffffffff82111715613f1d57613f1c61405b565b5b80604052505050565b6000613f3182613e77565b91507fffffffffffffffffffffffffffffffffffffffffffffffffffffffffffffffff821415613f6457613f63613fce565b5b600182019050919050565b6000613f7a82613f81565b9050919050565b6000613f8c8261409b565b9050919050565b6000819050919050565b6000613fa882613e77565b9150613fb383613e77565b925082613fc357613fc2613ffd565b5b828206905092915050565b7f4e487b7100000000000000000000000000000000000000000000000000000000600052601160045260246000fd5b7f4e487b7100000000000000000000000000000000000000000000000000000000600052601260045260246000fd5b7f4e487b7100000000000000000000000000000000000000000000000000000000600052602260045260246000fd5b7f4e487b7100000000000000000000000000000000000000000000000000000000600052604160045260246000fd5b6000601f19601f8301169050919050565b60008160601b9050919050565b7f426574206d75737420626520636f6d706c657465000000000000000000000000600082015250565b7f4552433732313a207472616e7366657220746f206e6f6e20455243373231526560008201527f63656976657220696d706c656d656e7465720000000000000000000000000000602082015250565b7f4f776e61626c653a206e6577206f776e657220697320746865207a65726f206160008201527f6464726573730000000000000000000000000000000000000000000000000000602082015250565b7f57696e6e6572206d7573742062652077697468696e206f7074696f6e73000000600082015250565b7f4552433732313a20746f6b656e20616c7265616479206d696e74656400000000600082015250565b7f626f6f6b20616c7265616479206578697374732061742074686973206b65792c60008201527f20796f75277265206c696b656c7920747279696e6720746f206372656174652060208201527f6d756c7469706c65206f66207468652073616d6520626f6f6b7320696e206f6e60408201527f652074782e20446f6e277420646f20746869732e000000000000000000000000606082015250565b7f4552433732313a207472616e7366657220746f20746865207a65726f2061646460008201527f7265737300000000000000000000000000000000000000000000000000000000602082015250565b7f4552433732313a20617070726f766520746f2063616c6c657200000000000000600082015250565b7f6f7074696f6e206d7573742062652077697468696e206f7074696f6e7320696e60008201527f20626f6f6b000000000000000000000000000000000000000000000000000000602082015250565b7f4d757374206861766520626574206f6e207468652077696e6e65720000000000600082015250565b7f4552433732313a206f70657261746f7220717565727920666f72206e6f6e657860008201527f697374656e7420746f6b656e0000000000000000000000000000000000000000602082015250565b7f526564756374696f6e20726174652063616e6e6f74206265206d6f726520746860008201527f616e203130302500000000000000000000000000000000000000000000000000602082015250565b7f4552433732313a20617070726f76652063616c6c6572206973206e6f74206f7760008201527f6e6572206e6f7220617070726f76656420666f7220616c6c0000000000000000602082015250565b7f4552433732313a2062616c616e636520717565727920666f7220746865207a6560008201527f726f206164647265737300000000000000000000000000000000000000000000602082015250565b7f4552433732313a206f776e657220717565727920666f72206e6f6e657869737460008201527f656e7420746f6b656e0000000000000000000000000000000000000000000000602082015250565b7f4552433732313a206d696e7420746f20746865207a65726f2061646472657373600082015250565b7f4552433732313a20617070726f76656420717565727920666f72206e6f6e657860008201527f697374656e7420746f6b656e0000000000000000000000000000000000000000602082015250565b7f4f776e61626c653a2063616c6c6572206973206e6f7420746865206f776e6572600082015250565b7f4f6e6c792074686520626f6f6b69652063616e20736574746c6520746865206260008201527f6574000000000000000000000000000000000000000000000000000000000000602082015250565b7f4552433732313a207472616e73666572206f6620746f6b656e2074686174206960008201527f73206e6f74206f776e0000000000000000000000000000000000000000000000602082015250565b7f4552433732314d657461646174613a2055524920717565727920666f72206e6f60008201527f6e6578697374656e7420746f6b656e0000000000000000000000000000000000602082015250565b7f4f6e6c792074686520626f6f6b69652063616e2070726f76696465207468652060008201527f626f6f6b732066756e64696e6700000000000000000000000000000000000000602082015250565b7f4552433732313a20617070726f76616c20746f2063757272656e74206f776e6560008201527f7200000000000000000000000000000000000000000000000000000000000000602082015250565b7f4d7573742068617665206d6f7265207468616e2031206f7074696f6e20746f2060008201527f626574206f6e0000000000000000000000000000000000000000000000000000602082015250565b7f4552433732313a207472616e736665722063616c6c6572206973206e6f74206f60008201527f776e6572206e6f7220617070726f766564000000000000000000000000000000602082015250565b7f4d7573742073656e6420656e6f7567682077656920746f2066756e642065616360008201527f68206f7074696f6e000000000000000000000000000000000000000000000000602082015250565b7f626574206d7573742062652077697468696e206f7074696f6e73000000000000600082015250565b61482281613e03565b811461482d57600080fd5b50565b61483981613e15565b811461484457600080fd5b50565b61485081613e21565b811461485b57600080fd5b50565b61486781613e2b565b811461487257600080fd5b50565b61487e81613e77565b811461488957600080fd5b5056fea26469706673582212204599b5b6f281de8a50829e3a1df93332c858699bbd23044f93f526b59b6b251d64736f6c63430008040033",
  "immutableReferences": {
    "557": [
      {
        "length": 32,
        "start": 4919
      }
    ]
  },
  "source": "//SPDX-License-Identifier: None\npragma solidity ^0.8.0;\n\nimport \"./Betting.sol\";\nimport \"@openzeppelin/contracts/access/Ownable.sol\";\n\ncontract MugenBet is Betting, Ownable{\n    uint constant private OPTIONS = 2;\n    uint immutable private reductionRate;\n    bytes32[] games;\n\n    event NewGame(bytes32);\n    event GameOver(bytes32);\n\n    constructor(uint _r) Ownable(){\n        reductionRate = _r;\n    }\n\n    /**\n    * @dev newGame function called by owner to create a game, and push it to array\n     */\n    function newGame()external onlyOwner{\n        bytes32 key = _newBook(address(this), OPTIONS, reductionRate);\n        games.push(key);\n        emit NewGame(key);\n    }\n\n    /**\n    * @dev settleGame called with a game's results\n    * @param _winner is the index of the winner of the game\n     */\n    function settleGame(bytes32 _book, uint _winner)external onlyOwner{\n        callBet(_book, _winner);\n        emit GameOver(_book);\n    }\n\n    /**\n    * @dev returns the first two amounts of a game for frontend\n    * @param _game is the game id\n    * @return both the amounts\n     */\n    function getFirsttwoAmounts(bytes32 _game)external view returns(uint,uint){\n        return(books[_game].optionsAmounts[0], books[_game].optionsAmounts[1]);\n    }\n}",
  "sourcePath": "/home/carsoncase/Documents/programming/blockchain/Seth/MugenBet/smartContracts/contracts/MugenBet.sol",
  "compiler": {
    "name": "solc",
    "version": "0.8.4+commit.c7e474f2.Emscripten.clang"
  },
  "schemaVersion": "3.4.1",
  "updatedAt": "2021-07-07T21:21:12.590Z",
  "networkType": "ethereum",
  "devdoc": {
    "kind": "dev",
    "methods": {
      "approve(address,uint256)": {
        "details": "See {IERC721-approve}."
      },
      "balanceOf(address)": {
        "details": "See {IERC721-balanceOf}."
      },
      "callBet(bytes32,uint256)": {
        "details": "Function to call the winner of a bet. Only callable by bookie.",
        "params": {
          "_book": "to call",
          "_winner": "must be within options"
        }
      },
      "fundBet(bytes32)": {
        "details": "fundBet function for a bookie only to add some liquidity to a bet. People need money to win at the start",
        "params": {
          "_book": "the book hash to fund"
        }
      },
      "getApproved(uint256)": {
        "details": "See {IERC721-getApproved}."
      },
      "getFirsttwoAmounts(bytes32)": {
        "details": "returns the first two amounts of a game for frontend",
        "params": {
          "_game": "is the game id"
        },
        "returns": {
          "_0": "both the amounts"
        }
      },
      "getOdds(bytes32,uint256,uint256)": {
        "details": "getOdds somewhat confusingly actually returns the payout amount, not the odds",
        "params": {
          "_amount": "is the amount to bet. Your odds depend on this",
          "_book": "is the book ",
          "_option": "is the option index to bet on"
        },
        "returns": {
          "_0": "payout if win"
        }
      },
      "isApprovedForAll(address,address)": {
        "details": "See {IERC721-isApprovedForAll}."
      },
      "name()": {
        "details": "See {IERC721Metadata-name}."
      },
      "newGame()": {
        "details": "newGame function called by owner to create a game, and push it to array"
      },
      "owner()": {
        "details": "Returns the address of the current owner."
      },
      "ownerOf(uint256)": {
        "details": "See {IERC721-ownerOf}."
      },
      "placeBet(bytes32,uint256)": {
        "details": "function to place a bet. Anyone can call on any book as long as the option is included in the book",
        "params": {
          "_book": "is the book hash",
          "_option": "is the option to bet on"
        }
      },
      "renounceOwnership()": {
        "details": "Leaves the contract without owner. It will not be possible to call `onlyOwner` functions anymore. Can only be called by the current owner. NOTE: Renouncing ownership will leave the contract without an owner, thereby removing any functionality that is only available to the owner."
      },
      "safeTransferFrom(address,address,uint256)": {
        "details": "See {IERC721-safeTransferFrom}."
      },
      "safeTransferFrom(address,address,uint256,bytes)": {
        "details": "See {IERC721-safeTransferFrom}."
      },
      "setApprovalForAll(address,bool)": {
        "details": "See {IERC721-setApprovalForAll}."
      },
      "settleBet(uint256)": {
        "details": "function to collect on a won bet",
        "params": {
          "ticket": "is the NFT id to turn in for the winnings"
        }
      },
      "settleGame(bytes32,uint256)": {
        "details": "settleGame called with a game's results",
        "params": {
          "_winner": "is the index of the winner of the game"
        }
      },
      "supportsInterface(bytes4)": {
        "details": "See {IERC165-supportsInterface}."
      },
      "symbol()": {
        "details": "See {IERC721Metadata-symbol}."
      },
      "tokenURI(uint256)": {
        "details": "See {IERC721Metadata-tokenURI}."
      },
      "transferFrom(address,address,uint256)": {
        "details": "See {IERC721-transferFrom}."
      },
      "transferOwnership(address)": {
        "details": "Transfers ownership of the contract to a new account (`newOwner`). Can only be called by the current owner."
      }
    },
    "version": 1
  },
  "userdoc": {
    "kind": "user",
    "methods": {},
    "version": 1
  }
}