{
  "contractName": "MugenBet",
  "abi": [
    {
      "inputs": [
        {
          "internalType": "uint256",
          "name": "_r",
          "type": "uint256"
        }
      ],
      "stateMutability": "nonpayable",
      "type": "constructor"
    },
    {
      "anonymous": false,
      "inputs": [
        {
          "indexed": true,
          "internalType": "address",
          "name": "owner",
          "type": "address"
        },
        {
          "indexed": true,
          "internalType": "address",
          "name": "approved",
          "type": "address"
        },
        {
          "indexed": true,
          "internalType": "uint256",
          "name": "tokenId",
          "type": "uint256"
        }
      ],
      "name": "Approval",
      "type": "event"
    },
    {
      "anonymous": false,
      "inputs": [
        {
          "indexed": true,
          "internalType": "address",
          "name": "owner",
          "type": "address"
        },
        {
          "indexed": true,
          "internalType": "address",
          "name": "operator",
          "type": "address"
        },
        {
          "indexed": false,
          "internalType": "bool",
          "name": "approved",
          "type": "bool"
        }
      ],
      "name": "ApprovalForAll",
      "type": "event"
    },
    {
      "anonymous": false,
      "inputs": [
        {
          "indexed": false,
          "internalType": "bytes32",
          "name": "",
          "type": "bytes32"
        }
      ],
      "name": "GameOver",
      "type": "event"
    },
    {
      "anonymous": false,
      "inputs": [
        {
          "indexed": false,
          "internalType": "uint256",
          "name": "",
          "type": "uint256"
        },
        {
          "indexed": false,
          "internalType": "address",
          "name": "",
          "type": "address"
        },
        {
          "indexed": false,
          "internalType": "bytes32",
          "name": "",
          "type": "bytes32"
        }
      ],
      "name": "NewBet",
      "type": "event"
    },
    {
      "anonymous": false,
      "inputs": [
        {
          "indexed": false,
          "internalType": "address",
          "name": "",
          "type": "address"
        },
        {
          "indexed": false,
          "internalType": "bytes32",
          "name": "",
          "type": "bytes32"
        }
      ],
      "name": "NewBook",
      "type": "event"
    },
    {
      "anonymous": false,
      "inputs": [
        {
          "indexed": false,
          "internalType": "bytes32",
          "name": "",
          "type": "bytes32"
        }
      ],
      "name": "NewGame",
      "type": "event"
    },
    {
      "anonymous": false,
      "inputs": [
        {
          "indexed": true,
          "internalType": "address",
          "name": "previousOwner",
          "type": "address"
        },
        {
          "indexed": true,
          "internalType": "address",
          "name": "newOwner",
          "type": "address"
        }
      ],
      "name": "OwnershipTransferred",
      "type": "event"
    },
    {
      "anonymous": false,
      "inputs": [
        {
          "indexed": true,
          "internalType": "address",
          "name": "from",
          "type": "address"
        },
        {
          "indexed": true,
          "internalType": "address",
          "name": "to",
          "type": "address"
        },
        {
          "indexed": true,
          "internalType": "uint256",
          "name": "tokenId",
          "type": "uint256"
        }
      ],
      "name": "Transfer",
      "type": "event"
    },
    {
      "inputs": [
        {
          "internalType": "address",
          "name": "to",
          "type": "address"
        },
        {
          "internalType": "uint256",
          "name": "tokenId",
          "type": "uint256"
        }
      ],
      "name": "approve",
      "outputs": [],
      "stateMutability": "nonpayable",
      "type": "function"
    },
    {
      "inputs": [
        {
          "internalType": "address",
          "name": "owner",
          "type": "address"
        }
      ],
      "name": "balanceOf",
      "outputs": [
        {
          "internalType": "uint256",
          "name": "",
          "type": "uint256"
        }
      ],
      "stateMutability": "view",
      "type": "function",
      "constant": true
    },
    {
      "inputs": [
        {
          "internalType": "uint256",
          "name": "",
          "type": "uint256"
        }
      ],
      "name": "betTicketFromNFT",
      "outputs": [
        {
          "internalType": "bytes32",
          "name": "book",
          "type": "bytes32"
        },
        {
          "internalType": "uint256",
          "name": "option",
          "type": "uint256"
        },
        {
          "internalType": "uint256",
          "name": "payout",
          "type": "uint256"
        }
      ],
      "stateMutability": "view",
      "type": "function",
      "constant": true
    },
    {
      "inputs": [
        {
          "internalType": "bytes32",
          "name": "",
          "type": "bytes32"
        }
      ],
      "name": "books",
      "outputs": [
        {
          "internalType": "address",
          "name": "bookie",
          "type": "address"
        },
        {
          "internalType": "uint256",
          "name": "reductionRate",
          "type": "uint256"
        },
        {
          "internalType": "uint256",
          "name": "optionsCount",
          "type": "uint256"
        },
        {
          "internalType": "uint256",
          "name": "totalBets",
          "type": "uint256"
        },
        {
          "internalType": "bool",
          "name": "complete",
          "type": "bool"
        },
        {
          "internalType": "uint256",
          "name": "winner",
          "type": "uint256"
        }
      ],
      "stateMutability": "view",
      "type": "function",
      "constant": true
    },
    {
      "inputs": [
        {
          "internalType": "bytes32",
          "name": "_book",
          "type": "bytes32"
        },
        {
          "internalType": "uint256",
          "name": "_winner",
          "type": "uint256"
        }
      ],
      "name": "callBet",
      "outputs": [],
      "stateMutability": "nonpayable",
      "type": "function"
    },
    {
      "inputs": [
        {
          "internalType": "bytes32",
          "name": "_book",
          "type": "bytes32"
        }
      ],
      "name": "fundBet",
      "outputs": [],
      "stateMutability": "payable",
      "type": "function",
      "payable": true
    },
    {
      "inputs": [
        {
          "internalType": "uint256",
          "name": "tokenId",
          "type": "uint256"
        }
      ],
      "name": "getApproved",
      "outputs": [
        {
          "internalType": "address",
          "name": "",
          "type": "address"
        }
      ],
      "stateMutability": "view",
      "type": "function",
      "constant": true
    },
    {
      "inputs": [
        {
          "internalType": "bytes32",
          "name": "_book",
          "type": "bytes32"
        },
        {
          "internalType": "uint256",
          "name": "_option",
          "type": "uint256"
        },
        {
          "internalType": "uint256",
          "name": "_amount",
          "type": "uint256"
        }
      ],
      "name": "getOdds",
      "outputs": [
        {
          "internalType": "uint256",
          "name": "",
          "type": "uint256"
        }
      ],
      "stateMutability": "view",
      "type": "function",
      "constant": true
    },
    {
      "inputs": [
        {
          "internalType": "address",
          "name": "owner",
          "type": "address"
        },
        {
          "internalType": "address",
          "name": "operator",
          "type": "address"
        }
      ],
      "name": "isApprovedForAll",
      "outputs": [
        {
          "internalType": "bool",
          "name": "",
          "type": "bool"
        }
      ],
      "stateMutability": "view",
      "type": "function",
      "constant": true
    },
    {
      "inputs": [],
      "name": "name",
      "outputs": [
        {
          "internalType": "string",
          "name": "",
          "type": "string"
        }
      ],
      "stateMutability": "view",
      "type": "function",
      "constant": true
    },
    {
      "inputs": [],
      "name": "oneHundredPercent",
      "outputs": [
        {
          "internalType": "uint256",
          "name": "",
          "type": "uint256"
        }
      ],
      "stateMutability": "view",
      "type": "function",
      "constant": true
    },
    {
      "inputs": [],
      "name": "owner",
      "outputs": [
        {
          "internalType": "address",
          "name": "",
          "type": "address"
        }
      ],
      "stateMutability": "view",
      "type": "function",
      "constant": true
    },
    {
      "inputs": [
        {
          "internalType": "uint256",
          "name": "tokenId",
          "type": "uint256"
        }
      ],
      "name": "ownerOf",
      "outputs": [
        {
          "internalType": "address",
          "name": "",
          "type": "address"
        }
      ],
      "stateMutability": "view",
      "type": "function",
      "constant": true
    },
    {
      "inputs": [
        {
          "internalType": "bytes32",
          "name": "_book",
          "type": "bytes32"
        },
        {
          "internalType": "uint256",
          "name": "_option",
          "type": "uint256"
        }
      ],
      "name": "placeBet",
      "outputs": [],
      "stateMutability": "payable",
      "type": "function",
      "payable": true
    },
    {
      "inputs": [],
      "name": "renounceOwnership",
      "outputs": [],
      "stateMutability": "nonpayable",
      "type": "function"
    },
    {
      "inputs": [
        {
          "internalType": "address",
          "name": "from",
          "type": "address"
        },
        {
          "internalType": "address",
          "name": "to",
          "type": "address"
        },
        {
          "internalType": "uint256",
          "name": "tokenId",
          "type": "uint256"
        }
      ],
      "name": "safeTransferFrom",
      "outputs": [],
      "stateMutability": "nonpayable",
      "type": "function"
    },
    {
      "inputs": [
        {
          "internalType": "address",
          "name": "from",
          "type": "address"
        },
        {
          "internalType": "address",
          "name": "to",
          "type": "address"
        },
        {
          "internalType": "uint256",
          "name": "tokenId",
          "type": "uint256"
        },
        {
          "internalType": "bytes",
          "name": "_data",
          "type": "bytes"
        }
      ],
      "name": "safeTransferFrom",
      "outputs": [],
      "stateMutability": "nonpayable",
      "type": "function"
    },
    {
      "inputs": [
        {
          "internalType": "address",
          "name": "operator",
          "type": "address"
        },
        {
          "internalType": "bool",
          "name": "approved",
          "type": "bool"
        }
      ],
      "name": "setApprovalForAll",
      "outputs": [],
      "stateMutability": "nonpayable",
      "type": "function"
    },
    {
      "inputs": [
        {
          "internalType": "uint256",
          "name": "ticket",
          "type": "uint256"
        }
      ],
      "name": "settleBet",
      "outputs": [],
      "stateMutability": "nonpayable",
      "type": "function"
    },
    {
      "inputs": [
        {
          "internalType": "bytes4",
          "name": "interfaceId",
          "type": "bytes4"
        }
      ],
      "name": "supportsInterface",
      "outputs": [
        {
          "internalType": "bool",
          "name": "",
          "type": "bool"
        }
      ],
      "stateMutability": "view",
      "type": "function",
      "constant": true
    },
    {
      "inputs": [],
      "name": "symbol",
      "outputs": [
        {
          "internalType": "string",
          "name": "",
          "type": "string"
        }
      ],
      "stateMutability": "view",
      "type": "function",
      "constant": true
    },
    {
      "inputs": [
        {
          "internalType": "uint256",
          "name": "tokenId",
          "type": "uint256"
        }
      ],
      "name": "tokenURI",
      "outputs": [
        {
          "internalType": "string",
          "name": "",
          "type": "string"
        }
      ],
      "stateMutability": "view",
      "type": "function",
      "constant": true
    },
    {
      "inputs": [
        {
          "internalType": "address",
          "name": "from",
          "type": "address"
        },
        {
          "internalType": "address",
          "name": "to",
          "type": "address"
        },
        {
          "internalType": "uint256",
          "name": "tokenId",
          "type": "uint256"
        }
      ],
      "name": "transferFrom",
      "outputs": [],
      "stateMutability": "nonpayable",
      "type": "function"
    },
    {
      "inputs": [
        {
          "internalType": "address",
          "name": "newOwner",
          "type": "address"
        }
      ],
      "name": "transferOwnership",
      "outputs": [],
      "stateMutability": "nonpayable",
      "type": "function"
    },
    {
      "inputs": [],
      "name": "newGame",
      "outputs": [],
      "stateMutability": "nonpayable",
      "type": "function"
    },
    {
      "inputs": [
        {
          "internalType": "bytes32",
          "name": "_book",
          "type": "bytes32"
        },
        {
          "internalType": "uint256",
          "name": "_winner",
          "type": "uint256"
        }
      ],
      "name": "settleGame",
      "outputs": [],
      "stateMutability": "nonpayable",
      "type": "function"
    },
    {
      "inputs": [
        {
          "internalType": "bytes32",
          "name": "_game",
          "type": "bytes32"
        }
      ],
      "name": "getFirsttwoAmounts",
      "outputs": [
        {
          "internalType": "uint256",
          "name": "",
          "type": "uint256"
        },
        {
          "internalType": "uint256",
          "name": "",
          "type": "uint256"
        }
      ],
      "stateMutability": "view",
      "type": "function",
      "constant": true
    }
  ],
  "bytecode": "0x60a060405260006006553480156200001657600080fd5b5060405162004ac838038062004ac883398181016040528101906200003c91906200026b565b6040518060400160405280600e81526020017f42657474696e67205469636b65740000000000000000000000000000000000008152506040518060400160405280600381526020017f42455400000000000000000000000000000000000000000000000000000000008152508160009080519060200190620000c0929190620001a4565b508060019080519060200190620000d9929190620001a4565b5050506000620000ee6200019c60201b60201c565b905080600960006101000a81548173ffffffffffffffffffffffffffffffffffffffff021916908373ffffffffffffffffffffffffffffffffffffffff1602179055508073ffffffffffffffffffffffffffffffffffffffff16600073ffffffffffffffffffffffffffffffffffffffff167f8be0079c531659141344cd1fd0a4f28419497f9722a3daafe3b4186f6b6457e060405160405180910390a35080608081815250505062000320565b600033905090565b828054620001b290620002a1565b90600052602060002090601f016020900481019282620001d6576000855562000222565b82601f10620001f157805160ff191683800117855562000222565b8280016001018555821562000222579182015b828111156200022157825182559160200191906001019062000204565b5b50905062000231919062000235565b5090565b5b808211156200025057600081600090555060010162000236565b5090565b600081519050620002658162000306565b92915050565b6000602082840312156200027e57600080fd5b60006200028e8482850162000254565b91505092915050565b6000819050919050565b60006002820490506001821680620002ba57607f821691505b60208210811415620002d157620002d0620002d7565b5b50919050565b7f4e487b7100000000000000000000000000000000000000000000000000000000600052602260045260246000fd5b620003118162000297565b81146200031d57600080fd5b50565b60805161478c6200033c6000396000611293015261478c6000f3fe60806040526004361061019c5760003560e01c8063726e0320116100ec578063a22cb4651161008a578063c87b56dd11610064578063c87b56dd146105cf578063e985e9c51461060c578063f2fde38b14610649578063f3118d8e146106725761019c565b8063a22cb46514610554578063b05f36d31461057d578063b88d4fde146105a65761019c565b806381007391116100c65780638100739114610483578063895f4c60146104c05780638da5cb5b146104fe57806395d89b41146105295761019c565b8063726e0320146104045780637bab25d11461042d5780637d03f5f31461046c5761019c565b806316fd381a1161015957806342842e0e1161013357806342842e0e1461034a5780636352211e1461037357806370a08231146103b0578063715018a6146103ed5761019c565b806316fd381a146102cd57806323b872dd146102f657806334913f281461031f5761019c565b806301ffc9a7146101a157806306fdde03146101de578063081812fc14610209578063095ea7b3146102465780630c0dee701461026f578063154048ab146102b1575b600080fd5b3480156101ad57600080fd5b506101c860048036038101906101c3919061309a565b61068e565b6040516101d59190613724565b60405180910390f35b3480156101ea57600080fd5b506101f3610770565b6040516102009190613791565b60405180910390f35b34801561021557600080fd5b50610230600480360381019061022b91906130ec565b610802565b60405161023d9190613633565b60405180910390f35b34801561025257600080fd5b5061026d60048036038101906102689190612faa565b610887565b005b34801561027b57600080fd5b5061029660048036038101906102919190612fe6565b61099f565b6040516102a8969594939291906136c3565b60405180910390f35b6102cb60048036038101906102c69190612fe6565b610a08565b005b3480156102d957600080fd5b506102f460048036038101906102ef91906130ec565b610ba3565b005b34801561030257600080fd5b5061031d60048036038101906103189190612ea4565b610d14565b005b34801561032b57600080fd5b50610334610d74565b6040516103419190613af3565b60405180910390f35b34801561035657600080fd5b50610371600480360381019061036c9190612ea4565b610d7a565b005b34801561037f57600080fd5b5061039a600480360381019061039591906130ec565b610d9a565b6040516103a79190613633565b60405180910390f35b3480156103bc57600080fd5b506103d760048036038101906103d29190612e3f565b610e4c565b6040516103e49190613af3565b60405180910390f35b3480156103f957600080fd5b50610402610f04565b005b34801561041057600080fd5b5061042b6004803603810190610426919061300f565b611041565b005b34801561043957600080fd5b50610454600480360381019061044f91906130ec565b6111e3565b6040516104639392919061375a565b60405180910390f35b34801561047857600080fd5b5061048161120d565b005b34801561048f57600080fd5b506104aa60048036038101906104a5919061304b565b61131c565b6040516104b79190613af3565b60405180910390f35b3480156104cc57600080fd5b506104e760048036038101906104e29190612fe6565b611473565b6040516104f5929190613b45565b60405180910390f35b34801561050a57600080fd5b50610513611533565b6040516105209190613633565b60405180910390f35b34801561053557600080fd5b5061053e61155d565b60405161054b9190613791565b60405180910390f35b34801561056057600080fd5b5061057b60048036038101906105769190612f6e565b6115ef565b005b34801561058957600080fd5b506105a4600480360381019061059f919061300f565b611770565b005b3480156105b257600080fd5b506105cd60048036038101906105c89190612ef3565b611831565b005b3480156105db57600080fd5b506105f660048036038101906105f191906130ec565b611893565b6040516106039190613791565b60405180910390f35b34801561061857600080fd5b50610633600480360381019061062e9190612e68565b61193a565b6040516106409190613724565b60405180910390f35b34801561065557600080fd5b50610670600480360381019061066b9190612e3f565b6119ce565b005b61068c6004803603810190610687919061300f565b611b7a565b005b60007f80ac58cd000000000000000000000000000000000000000000000000000000007bffffffffffffffffffffffffffffffffffffffffffffffffffffffff1916827bffffffffffffffffffffffffffffffffffffffffffffffffffffffff1916148061075957507f5b5e139f000000000000000000000000000000000000000000000000000000007bffffffffffffffffffffffffffffffffffffffffffffffffffffffff1916827bffffffffffffffffffffffffffffffffffffffffffffffffffffffff1916145b80610769575061076882611b8a565b5b9050919050565b60606000805461077f90613ddc565b80601f01602080910402602001604051908101604052809291908181526020018280546107ab90613ddc565b80156107f85780601f106107cd576101008083540402835291602001916107f8565b820191906000526020600020905b8154815290600101906020018083116107db57829003601f168201915b5050505050905090565b600061080d82611bf4565b61084c576040517f08c379a0000000000000000000000000000000000000000000000000000000008152600401610843906139b3565b60405180910390fd5b6004600083815260200190815260200160002060009054906101000a900473ffffffffffffffffffffffffffffffffffffffff169050919050565b600061089282610d9a565b90508073ffffffffffffffffffffffffffffffffffffffff168373ffffffffffffffffffffffffffffffffffffffff161415610903576040517f08c379a00000000000000000000000000000000000000000000000000000000081526004016108fa90613a53565b60405180910390fd5b8073ffffffffffffffffffffffffffffffffffffffff16610922611c60565b73ffffffffffffffffffffffffffffffffffffffff16148061095157506109508161094b611c60565b61193a565b5b610990576040517f08c379a000000000000000000000000000000000000000000000000000000000815260040161098790613933565b60405180910390fd5b61099a8383611c68565b505050565b60086020528060005260406000206000915090508060000160009054906101000a900473ffffffffffffffffffffffffffffffffffffffff16908060010154908060040154908060050154908060060160009054906101000a900460ff16908060070154905086565b6008600082815260200190815260200160002060000160009054906101000a900473ffffffffffffffffffffffffffffffffffffffff1673ffffffffffffffffffffffffffffffffffffffff163373ffffffffffffffffffffffffffffffffffffffff1614610aac576040517f08c379a0000000000000000000000000000000000000000000000000000000008152600401610aa390613a33565b60405180910390fd5b600080600860008481526020019081526020016000206004015434610ad19190613c5d565b905060018111610b16576040517f08c379a0000000000000000000000000000000000000000000000000000000008152600401610b0d90613ab3565b60405180910390fd5b60005b60016008600086815260200190815260200160002060040154610b3c9190613ce8565b811015610b70578183610b4f9190613c07565b9250610b5d33858385611d21565b8080610b6890613e3f565b915050610b19565b50610b9e338460086000878152602001908152602001600020600401548534610b999190613ce8565b611d21565b505050565b600860006007600084815260200190815260200160002060000154815260200190815260200160002060060160009054906101000a900460ff16610c1c576040517f08c379a0000000000000000000000000000000000000000000000000000000008152600401610c13906137b3565b60405180910390fd5b600760008281526020019081526020016000206001015460086000600760008581526020019081526020016000206000015481526020019081526020016000206007015414610ca0576040517f08c379a0000000000000000000000000000000000000000000000000000000008152600401610c97906138d3565b60405180910390fd5b610cab333083610d14565b610cb481611f4c565b3373ffffffffffffffffffffffffffffffffffffffff166108fc60076000848152602001908152602001600020600201549081150290604051600060405180830381858888f19350505050158015610d10573d6000803e3d6000fd5b5050565b610d25610d1f611c60565b8261205d565b610d64576040517f08c379a0000000000000000000000000000000000000000000000000000000008152600401610d5b90613a93565b60405180910390fd5b610d6f83838361213b565b505050565b61271081565b610d9583838360405180602001604052806000815250611831565b505050565b6000806002600084815260200190815260200160002060009054906101000a900473ffffffffffffffffffffffffffffffffffffffff169050600073ffffffffffffffffffffffffffffffffffffffff168173ffffffffffffffffffffffffffffffffffffffff161415610e43576040517f08c379a0000000000000000000000000000000000000000000000000000000008152600401610e3a90613973565b60405180910390fd5b80915050919050565b60008073ffffffffffffffffffffffffffffffffffffffff168273ffffffffffffffffffffffffffffffffffffffff161415610ebd576040517f08c379a0000000000000000000000000000000000000000000000000000000008152600401610eb490613953565b60405180910390fd5b600360008373ffffffffffffffffffffffffffffffffffffffff1673ffffffffffffffffffffffffffffffffffffffff168152602001908152602001600020549050919050565b610f0c611c60565b73ffffffffffffffffffffffffffffffffffffffff16610f2a611533565b73ffffffffffffffffffffffffffffffffffffffff1614610f80576040517f08c379a0000000000000000000000000000000000000000000000000000000008152600401610f77906139d3565b60405180910390fd5b600073ffffffffffffffffffffffffffffffffffffffff16600960009054906101000a900473ffffffffffffffffffffffffffffffffffffffff1673ffffffffffffffffffffffffffffffffffffffff167f8be0079c531659141344cd1fd0a4f28419497f9722a3daafe3b4186f6b6457e060405160405180910390a36000600960006101000a81548173ffffffffffffffffffffffffffffffffffffffff021916908373ffffffffffffffffffffffffffffffffffffffff160217905550565b60086000838152602001908152602001600020600401548110611099576040517f08c379a000000000000000000000000000000000000000000000000000000000815260040161109090613813565b60405180910390fd5b80600860008481526020019081526020016000206007018190555060016008600084815260200190815260200160002060060160006101000a81548160ff0219169083151502179055506000600860008481526020019081526020016000206003018281548110611133577f4e487b7100000000000000000000000000000000000000000000000000000000600052603260045260246000fd5b9060005260206000200154600860008581526020019081526020016000206005015461115f9190613ce8565b90506008600084815260200190815260200160002060000160009054906101000a900473ffffffffffffffffffffffffffffffffffffffff1673ffffffffffffffffffffffffffffffffffffffff166108fc829081150290604051600060405180830381858888f193505050501580156111dd573d6000803e3d6000fd5b50505050565b60076020528060005260406000206000915090508060000154908060010154908060020154905083565b611215611c60565b73ffffffffffffffffffffffffffffffffffffffff16611233611533565b73ffffffffffffffffffffffffffffffffffffffff1614611289576040517f08c379a0000000000000000000000000000000000000000000000000000000008152600401611280906139d3565b60405180910390fd5b60006112b73060027f0000000000000000000000000000000000000000000000000000000000000000612397565b9050600a8190806001815401808255809150506001900390600052602060002001600090919091909150557f7f1103ce4bef3a709dfee84e767c11461b2485804077e344206d760d290dbf6e81604051611311919061373f565b60405180910390a150565b600082600860008681526020019081526020016000206004015411611376576040517f08c379a000000000000000000000000000000000000000000000000000000000815260040161136d906138b3565b60405180910390fd5b60006008600086815260200190815260200160002090506000816005015414156113a3578291505061146c565b612710808260020186815481106113e3577f4e487b7100000000000000000000000000000000000000000000000000000000600052603260045260246000fd5b9060005260206000200154856113f99190613c07565b61271086856005015461140c9190613c07565b6127106114199190613c8e565b6114239190613c5d565b61142d9190613c8e565b836001015461271061143f9190613ce8565b8661144a9190613c8e565b6114549190613c8e565b61145e9190613c5d565b6114689190613c5d565b9150505b9392505050565b600080600860008481526020019081526020016000206002016000815481106114c5577f4e487b7100000000000000000000000000000000000000000000000000000000600052603260045260246000fd5b90600052602060002001546008600085815260200190815260200160002060020160018154811061151f577f4e487b7100000000000000000000000000000000000000000000000000000000600052603260045260246000fd5b906000526020600020015491509150915091565b6000600960009054906101000a900473ffffffffffffffffffffffffffffffffffffffff16905090565b60606001805461156c90613ddc565b80601f016020809104026020016040519081016040528092919081815260200182805461159890613ddc565b80156115e55780601f106115ba576101008083540402835291602001916115e5565b820191906000526020600020905b8154815290600101906020018083116115c857829003601f168201915b5050505050905090565b6115f7611c60565b73ffffffffffffffffffffffffffffffffffffffff168273ffffffffffffffffffffffffffffffffffffffff161415611665576040517f08c379a000000000000000000000000000000000000000000000000000000000815260040161165c90613893565b60405180910390fd5b8060056000611672611c60565b73ffffffffffffffffffffffffffffffffffffffff1673ffffffffffffffffffffffffffffffffffffffff16815260200190815260200160002060008473ffffffffffffffffffffffffffffffffffffffff1673ffffffffffffffffffffffffffffffffffffffff16815260200190815260200160002060006101000a81548160ff0219169083151502179055508173ffffffffffffffffffffffffffffffffffffffff1661171f611c60565b73ffffffffffffffffffffffffffffffffffffffff167f17307eab39ab6107e8899845ad3d59bd9653f200f220920489ca2b5937696c31836040516117649190613724565b60405180910390a35050565b611778611c60565b73ffffffffffffffffffffffffffffffffffffffff16611796611533565b73ffffffffffffffffffffffffffffffffffffffff16146117ec576040517f08c379a00000000000000000000000000000000000000000000000000000000081526004016117e3906139d3565b60405180910390fd5b6117f68282611041565b7f91b1d9fd53e8776eb533dbd2e22df2706ae9f1d11352e0e452f300981f04f4c182604051611825919061373f565b60405180910390a15050565b61184261183c611c60565b8361205d565b611881576040517f08c379a000000000000000000000000000000000000000000000000000000000815260040161187890613a93565b60405180910390fd5b61188d84848484612752565b50505050565b606061189e82611bf4565b6118dd576040517f08c379a00000000000000000000000000000000000000000000000000000000081526004016118d490613a13565b60405180910390fd5b60006118e76127ae565b905060008151116119075760405180602001604052806000815250611932565b80611911846127c5565b60405160200161192292919061360f565b6040516020818303038152906040525b915050919050565b6000600560008473ffffffffffffffffffffffffffffffffffffffff1673ffffffffffffffffffffffffffffffffffffffff16815260200190815260200160002060008373ffffffffffffffffffffffffffffffffffffffff1673ffffffffffffffffffffffffffffffffffffffff16815260200190815260200160002060009054906101000a900460ff16905092915050565b6119d6611c60565b73ffffffffffffffffffffffffffffffffffffffff166119f4611533565b73ffffffffffffffffffffffffffffffffffffffff1614611a4a576040517f08c379a0000000000000000000000000000000000000000000000000000000008152600401611a41906139d3565b60405180910390fd5b600073ffffffffffffffffffffffffffffffffffffffff168173ffffffffffffffffffffffffffffffffffffffff161415611aba576040517f08c379a0000000000000000000000000000000000000000000000000000000008152600401611ab1906137f3565b60405180910390fd5b8073ffffffffffffffffffffffffffffffffffffffff16600960009054906101000a900473ffffffffffffffffffffffffffffffffffffffff1673ffffffffffffffffffffffffffffffffffffffff167f8be0079c531659141344cd1fd0a4f28419497f9722a3daafe3b4186f6b6457e060405160405180910390a380600960006101000a81548173ffffffffffffffffffffffffffffffffffffffff021916908373ffffffffffffffffffffffffffffffffffffffff16021790555050565b611b8633838334611d21565b5050565b60007f01ffc9a7000000000000000000000000000000000000000000000000000000007bffffffffffffffffffffffffffffffffffffffffffffffffffffffff1916827bffffffffffffffffffffffffffffffffffffffffffffffffffffffff1916149050919050565b60008073ffffffffffffffffffffffffffffffffffffffff166002600084815260200190815260200160002060009054906101000a900473ffffffffffffffffffffffffffffffffffffffff1673ffffffffffffffffffffffffffffffffffffffff1614159050919050565b600033905090565b816004600083815260200190815260200160002060006101000a81548173ffffffffffffffffffffffffffffffffffffffff021916908373ffffffffffffffffffffffffffffffffffffffff160217905550808273ffffffffffffffffffffffffffffffffffffffff16611cdb83610d9a565b73ffffffffffffffffffffffffffffffffffffffff167f8c5be1e5ebec7d5bd14f71427d1e84f3dd0314c0f7b2291e5b200ac8c7c3b92560405160405180910390a45050565b81600860008581526020019081526020016000206004015411611d79576040517f08c379a0000000000000000000000000000000000000000000000000000000008152600401611d7090613ad3565b60405180910390fd5b611d8584600654612972565b6000611d9284848461131c565b905060405180606001604052808581526020018481526020018281525060076000600654815260200190815260200160002060008201518160000155602082015181600101556040820151816002015590505081600860008681526020019081526020016000206005016000828254611e0b9190613c07565b9250508190555081600860008681526020019081526020016000206002018481548110611e61577f4e487b7100000000000000000000000000000000000000000000000000000000600052603260045260246000fd5b906000526020600020016000828254611e7a9190613c07565b9250508190555080600860008681526020019081526020016000206003018481548110611ed0577f4e487b7100000000000000000000000000000000000000000000000000000000600052603260045260246000fd5b906000526020600020016000828254611ee99190613c07565b925050819055507f8fc9c4f9d6b36166b3dc0bcc4428f588ac64079e040b0623594709ccaceeac046006548686604051611f2593929190613b0e565b60405180910390a160066000815480929190611f4090613e3f565b91905055505050505050565b6000611f5782610d9a565b9050611f6581600084612b40565b611f70600083611c68565b6001600360008373ffffffffffffffffffffffffffffffffffffffff1673ffffffffffffffffffffffffffffffffffffffff1681526020019081526020016000206000828254611fc09190613ce8565b925050819055506002600083815260200190815260200160002060006101000a81549073ffffffffffffffffffffffffffffffffffffffff021916905581600073ffffffffffffffffffffffffffffffffffffffff168273ffffffffffffffffffffffffffffffffffffffff167fddf252ad1be2c89b69c2b068fc378daa952ba7f163c4a11628f55a4df523b3ef60405160405180910390a45050565b600061206882611bf4565b6120a7576040517f08c379a000000000000000000000000000000000000000000000000000000000815260040161209e906138f3565b60405180910390fd5b60006120b283610d9a565b90508073ffffffffffffffffffffffffffffffffffffffff168473ffffffffffffffffffffffffffffffffffffffff16148061212157508373ffffffffffffffffffffffffffffffffffffffff1661210984610802565b73ffffffffffffffffffffffffffffffffffffffff16145b806121325750612131818561193a565b5b91505092915050565b8273ffffffffffffffffffffffffffffffffffffffff1661215b82610d9a565b73ffffffffffffffffffffffffffffffffffffffff16146121b1576040517f08c379a00000000000000000000000000000000000000000000000000000000081526004016121a8906139f3565b60405180910390fd5b600073ffffffffffffffffffffffffffffffffffffffff168273ffffffffffffffffffffffffffffffffffffffff161415612221576040517f08c379a000000000000000000000000000000000000000000000000000000000815260040161221890613873565b60405180910390fd5b61222c838383612b40565b612237600082611c68565b6001600360008573ffffffffffffffffffffffffffffffffffffffff1673ffffffffffffffffffffffffffffffffffffffff16815260200190815260200160002060008282546122879190613ce8565b925050819055506001600360008473ffffffffffffffffffffffffffffffffffffffff1673ffffffffffffffffffffffffffffffffffffffff16815260200190815260200160002060008282546122de9190613c07565b92505081905550816002600083815260200190815260200160002060006101000a81548173ffffffffffffffffffffffffffffffffffffffff021916908373ffffffffffffffffffffffffffffffffffffffff160217905550808273ffffffffffffffffffffffffffffffffffffffff168473ffffffffffffffffffffffffffffffffffffffff167fddf252ad1be2c89b69c2b068fc378daa952ba7f163c4a11628f55a4df523b3ef60405160405180910390a4505050565b600061271082106123dd576040517f08c379a00000000000000000000000000000000000000000000000000000000081526004016123d490613913565b60405180910390fd5b60018311612420576040517f08c379a000000000000000000000000000000000000000000000000000000000815260040161241790613a73565b60405180910390fd5b60006040518061010001604052808673ffffffffffffffffffffffffffffffffffffffff1681526020018481526020018567ffffffffffffffff811115612490577f4e487b7100000000000000000000000000000000000000000000000000000000600052604160045260246000fd5b6040519080825280602002602001820160405280156124be5781602001602082028036833780820191505090505b5081526020018567ffffffffffffffff811115612504577f4e487b7100000000000000000000000000000000000000000000000000000000600052604160045260246000fd5b6040519080825280602002602001820160405280156125325781602001602082028036833780820191505090505b5081526020018581526020016000815260200160001515815260200160008152509050600085848633426040516020016125709594939291906135b0565b604051602081830303815290604052805190602001209050600073ffffffffffffffffffffffffffffffffffffffff166008600083815260200190815260200160002060000160009054906101000a900473ffffffffffffffffffffffffffffffffffffffff1673ffffffffffffffffffffffffffffffffffffffff161461262d576040517f08c379a000000000000000000000000000000000000000000000000000000000815260040161262490613853565b60405180910390fd5b816008600083815260200190815260200160002060008201518160000160006101000a81548173ffffffffffffffffffffffffffffffffffffffff021916908373ffffffffffffffffffffffffffffffffffffffff1602179055506020820151816001015560408201518160020190805190602001906126ae929190612cef565b5060608201518160030190805190602001906126cb929190612cef565b506080820151816004015560a0820151816005015560c08201518160060160006101000a81548160ff02191690831515021790555060e082015181600701559050507fbc339e5933ac6a883787f7b4e2f57ebc7cdbbb4f6a23a30cd8c7b18c8acb593b868260405161273e92919061369a565b60405180910390a180925050509392505050565b61275d84848461213b565b61276984848484612b45565b6127a8576040517f08c379a000000000000000000000000000000000000000000000000000000000815260040161279f906137d3565b60405180910390fd5b50505050565b606060405180602001604052806000815250905090565b6060600082141561280d576040518060400160405280600181526020017f3000000000000000000000000000000000000000000000000000000000000000815250905061296d565b600082905060005b6000821461283f57808061282890613e3f565b915050600a826128389190613c5d565b9150612815565b60008167ffffffffffffffff811115612881577f4e487b7100000000000000000000000000000000000000000000000000000000600052604160045260246000fd5b6040519080825280601f01601f1916602001820160405280156128b35781602001600182028036833780820191505090505b5090505b60008514612966576001826128cc9190613ce8565b9150600a856128db9190613eb6565b60306128e79190613c07565b60f81b818381518110612923577f4e487b7100000000000000000000000000000000000000000000000000000000600052603260045260246000fd5b60200101907effffffffffffffffffffffffffffffffffffffffffffffffffffffffffffff1916908160001a905350600a8561295f9190613c5d565b94506128b7565b8093505050505b919050565b600073ffffffffffffffffffffffffffffffffffffffff168273ffffffffffffffffffffffffffffffffffffffff1614156129e2576040517f08c379a00000000000000000000000000000000000000000000000000000000081526004016129d990613993565b60405180910390fd5b6129eb81611bf4565b15612a2b576040517f08c379a0000000000000000000000000000000000000000000000000000000008152600401612a2290613833565b60405180910390fd5b612a3760008383612b40565b6001600360008473ffffffffffffffffffffffffffffffffffffffff1673ffffffffffffffffffffffffffffffffffffffff1681526020019081526020016000206000828254612a879190613c07565b92505081905550816002600083815260200190815260200160002060006101000a81548173ffffffffffffffffffffffffffffffffffffffff021916908373ffffffffffffffffffffffffffffffffffffffff160217905550808273ffffffffffffffffffffffffffffffffffffffff16600073ffffffffffffffffffffffffffffffffffffffff167fddf252ad1be2c89b69c2b068fc378daa952ba7f163c4a11628f55a4df523b3ef60405160405180910390a45050565b505050565b6000612b668473ffffffffffffffffffffffffffffffffffffffff16612cdc565b15612ccf578373ffffffffffffffffffffffffffffffffffffffff1663150b7a02612b8f611c60565b8786866040518563ffffffff1660e01b8152600401612bb1949392919061364e565b602060405180830381600087803b158015612bcb57600080fd5b505af1925050508015612bfc57506040513d601f19601f82011682018060405250810190612bf991906130c3565b60015b612c7f573d8060008114612c2c576040519150601f19603f3d011682016040523d82523d6000602084013e612c31565b606091505b50600081511415612c77576040517f08c379a0000000000000000000000000000000000000000000000000000000008152600401612c6e906137d3565b60405180910390fd5b805181602001fd5b63150b7a0260e01b7bffffffffffffffffffffffffffffffffffffffffffffffffffffffff1916817bffffffffffffffffffffffffffffffffffffffffffffffffffffffff191614915050612cd4565b600190505b949350505050565b600080823b905060008111915050919050565b828054828255906000526020600020908101928215612d2b579160200282015b82811115612d2a578251825591602001919060010190612d0f565b5b509050612d389190612d3c565b5090565b5b80821115612d55576000816000905550600101612d3d565b5090565b6000612d6c612d6784613b93565b613b6e565b905082815260208101848484011115612d8457600080fd5b612d8f848285613d9a565b509392505050565b600081359050612da6816146e3565b92915050565b600081359050612dbb816146fa565b92915050565b600081359050612dd081614711565b92915050565b600081359050612de581614728565b92915050565b600081519050612dfa81614728565b92915050565b600082601f830112612e1157600080fd5b8135612e21848260208601612d59565b91505092915050565b600081359050612e398161473f565b92915050565b600060208284031215612e5157600080fd5b6000612e5f84828501612d97565b91505092915050565b60008060408385031215612e7b57600080fd5b6000612e8985828601612d97565b9250506020612e9a85828601612d97565b9150509250929050565b600080600060608486031215612eb957600080fd5b6000612ec786828701612d97565b9350506020612ed886828701612d97565b9250506040612ee986828701612e2a565b9150509250925092565b60008060008060808587031215612f0957600080fd5b6000612f1787828801612d97565b9450506020612f2887828801612d97565b9350506040612f3987828801612e2a565b925050606085013567ffffffffffffffff811115612f5657600080fd5b612f6287828801612e00565b91505092959194509250565b60008060408385031215612f8157600080fd5b6000612f8f85828601612d97565b9250506020612fa085828601612dac565b9150509250929050565b60008060408385031215612fbd57600080fd5b6000612fcb85828601612d97565b9250506020612fdc85828601612e2a565b9150509250929050565b600060208284031215612ff857600080fd5b600061300684828501612dc1565b91505092915050565b6000806040838503121561302257600080fd5b600061303085828601612dc1565b925050602061304185828601612e2a565b9150509250929050565b60008060006060848603121561306057600080fd5b600061306e86828701612dc1565b935050602061307f86828701612e2a565b925050604061309086828701612e2a565b9150509250925092565b6000602082840312156130ac57600080fd5b60006130ba84828501612dd6565b91505092915050565b6000602082840312156130d557600080fd5b60006130e384828501612deb565b91505092915050565b6000602082840312156130fe57600080fd5b600061310c84828501612e2a565b91505092915050565b61311e81613d1c565b82525050565b61313561313082613d1c565b613e88565b82525050565b61314481613d2e565b82525050565b61315381613d3a565b82525050565b600061316482613bc4565b61316e8185613bda565b935061317e818560208601613da9565b61318781613fa3565b840191505092915050565b600061319d82613bcf565b6131a78185613beb565b93506131b7818560208601613da9565b6131c081613fa3565b840191505092915050565b60006131d682613bcf565b6131e08185613bfc565b93506131f0818560208601613da9565b80840191505092915050565b6000613209601483613beb565b915061321482613fc1565b602082019050919050565b600061322c603283613beb565b915061323782613fea565b604082019050919050565b600061324f602683613beb565b915061325a82614039565b604082019050919050565b6000613272601d83613beb565b915061327d82614088565b602082019050919050565b6000613295601c83613beb565b91506132a0826140b1565b602082019050919050565b60006132b8607483613beb565b91506132c3826140da565b608082019050919050565b60006132db602483613beb565b91506132e682614175565b604082019050919050565b60006132fe601983613beb565b9150613309826141c4565b602082019050919050565b6000613321602583613beb565b915061332c826141ed565b604082019050919050565b6000613344601b83613beb565b915061334f8261423c565b602082019050919050565b6000613367602c83613beb565b915061337282614265565b604082019050919050565b600061338a602783613beb565b9150613395826142b4565b604082019050919050565b60006133ad603883613beb565b91506133b882614303565b604082019050919050565b60006133d0602a83613beb565b91506133db82614352565b604082019050919050565b60006133f3602983613beb565b91506133fe826143a1565b604082019050919050565b6000613416602083613beb565b9150613421826143f0565b602082019050919050565b6000613439602c83613beb565b915061344482614419565b604082019050919050565b600061345c602083613beb565b915061346782614468565b602082019050919050565b600061347f602983613beb565b915061348a82614491565b604082019050919050565b60006134a2602f83613beb565b91506134ad826144e0565b604082019050919050565b60006134c5602d83613beb565b91506134d08261452f565b604082019050919050565b60006134e8602183613beb565b91506134f38261457e565b604082019050919050565b600061350b602683613beb565b9150613516826145cd565b604082019050919050565b600061352e603183613beb565b91506135398261461c565b604082019050919050565b6000613551602883613beb565b915061355c8261466b565b604082019050919050565b6000613574601a83613beb565b915061357f826146ba565b602082019050919050565b61359381613d90565b82525050565b6135aa6135a582613d90565b613eac565b82525050565b60006135bc8288613124565b6014820191506135cc8287613599565b6020820191506135dc8286613599565b6020820191506135ec8285613124565b6014820191506135fc8284613599565b6020820191508190509695505050505050565b600061361b82856131cb565b915061362782846131cb565b91508190509392505050565b60006020820190506136486000830184613115565b92915050565b60006080820190506136636000830187613115565b6136706020830186613115565b61367d604083018561358a565b818103606083015261368f8184613159565b905095945050505050565b60006040820190506136af6000830185613115565b6136bc602083018461314a565b9392505050565b600060c0820190506136d86000830189613115565b6136e5602083018861358a565b6136f2604083018761358a565b6136ff606083018661358a565b61370c608083018561313b565b61371960a083018461358a565b979650505050505050565b6000602082019050613739600083018461313b565b92915050565b6000602082019050613754600083018461314a565b92915050565b600060608201905061376f600083018661314a565b61377c602083018561358a565b613789604083018461358a565b949350505050565b600060208201905081810360008301526137ab8184613192565b905092915050565b600060208201905081810360008301526137cc816131fc565b9050919050565b600060208201905081810360008301526137ec8161321f565b9050919050565b6000602082019050818103600083015261380c81613242565b9050919050565b6000602082019050818103600083015261382c81613265565b9050919050565b6000602082019050818103600083015261384c81613288565b9050919050565b6000602082019050818103600083015261386c816132ab565b9050919050565b6000602082019050818103600083015261388c816132ce565b9050919050565b600060208201905081810360008301526138ac816132f1565b9050919050565b600060208201905081810360008301526138cc81613314565b9050919050565b600060208201905081810360008301526138ec81613337565b9050919050565b6000602082019050818103600083015261390c8161335a565b9050919050565b6000602082019050818103600083015261392c8161337d565b9050919050565b6000602082019050818103600083015261394c816133a0565b9050919050565b6000602082019050818103600083015261396c816133c3565b9050919050565b6000602082019050818103600083015261398c816133e6565b9050919050565b600060208201905081810360008301526139ac81613409565b9050919050565b600060208201905081810360008301526139cc8161342c565b9050919050565b600060208201905081810360008301526139ec8161344f565b9050919050565b60006020820190508181036000830152613a0c81613472565b9050919050565b60006020820190508181036000830152613a2c81613495565b9050919050565b60006020820190508181036000830152613a4c816134b8565b9050919050565b60006020820190508181036000830152613a6c816134db565b9050919050565b60006020820190508181036000830152613a8c816134fe565b9050919050565b60006020820190508181036000830152613aac81613521565b9050919050565b60006020820190508181036000830152613acc81613544565b9050919050565b60006020820190508181036000830152613aec81613567565b9050919050565b6000602082019050613b08600083018461358a565b92915050565b6000606082019050613b23600083018661358a565b613b306020830185613115565b613b3d604083018461314a565b949350505050565b6000604082019050613b5a600083018561358a565b613b67602083018461358a565b9392505050565b6000613b78613b89565b9050613b848282613e0e565b919050565b6000604051905090565b600067ffffffffffffffff821115613bae57613bad613f74565b5b613bb782613fa3565b9050602081019050919050565b600081519050919050565b600081519050919050565b600082825260208201905092915050565b600082825260208201905092915050565b600081905092915050565b6000613c1282613d90565b9150613c1d83613d90565b9250827fffffffffffffffffffffffffffffffffffffffffffffffffffffffffffffffff03821115613c5257613c51613ee7565b5b828201905092915050565b6000613c6882613d90565b9150613c7383613d90565b925082613c8357613c82613f16565b5b828204905092915050565b6000613c9982613d90565b9150613ca483613d90565b9250817fffffffffffffffffffffffffffffffffffffffffffffffffffffffffffffffff0483118215151615613cdd57613cdc613ee7565b5b828202905092915050565b6000613cf382613d90565b9150613cfe83613d90565b925082821015613d1157613d10613ee7565b5b828203905092915050565b6000613d2782613d70565b9050919050565b60008115159050919050565b6000819050919050565b60007fffffffff0000000000000000000000000000000000000000000000000000000082169050919050565b600073ffffffffffffffffffffffffffffffffffffffff82169050919050565b6000819050919050565b82818337600083830152505050565b60005b83811015613dc7578082015181840152602081019050613dac565b83811115613dd6576000848401525b50505050565b60006002820490506001821680613df457607f821691505b60208210811415613e0857613e07613f45565b5b50919050565b613e1782613fa3565b810181811067ffffffffffffffff82111715613e3657613e35613f74565b5b80604052505050565b6000613e4a82613d90565b91507fffffffffffffffffffffffffffffffffffffffffffffffffffffffffffffffff821415613e7d57613e7c613ee7565b5b600182019050919050565b6000613e9382613e9a565b9050919050565b6000613ea582613fb4565b9050919050565b6000819050919050565b6000613ec182613d90565b9150613ecc83613d90565b925082613edc57613edb613f16565b5b828206905092915050565b7f4e487b7100000000000000000000000000000000000000000000000000000000600052601160045260246000fd5b7f4e487b7100000000000000000000000000000000000000000000000000000000600052601260045260246000fd5b7f4e487b7100000000000000000000000000000000000000000000000000000000600052602260045260246000fd5b7f4e487b7100000000000000000000000000000000000000000000000000000000600052604160045260246000fd5b6000601f19601f8301169050919050565b60008160601b9050919050565b7f426574206d75737420626520636f6d706c657465000000000000000000000000600082015250565b7f4552433732313a207472616e7366657220746f206e6f6e20455243373231526560008201527f63656976657220696d706c656d656e7465720000000000000000000000000000602082015250565b7f4f776e61626c653a206e6577206f776e657220697320746865207a65726f206160008201527f6464726573730000000000000000000000000000000000000000000000000000602082015250565b7f57696e6e6572206d7573742062652077697468696e206f7074696f6e73000000600082015250565b7f4552433732313a20746f6b656e20616c7265616479206d696e74656400000000600082015250565b7f626f6f6b20616c7265616479206578697374732061742074686973206b65792c60008201527f20796f75277265206c696b656c7920747279696e6720746f206372656174652060208201527f6d756c7469706c65206f66207468652073616d6520626f6f6b7320696e206f6e60408201527f652074782e20446f6e277420646f20746869732e000000000000000000000000606082015250565b7f4552433732313a207472616e7366657220746f20746865207a65726f2061646460008201527f7265737300000000000000000000000000000000000000000000000000000000602082015250565b7f4552433732313a20617070726f766520746f2063616c6c657200000000000000600082015250565b7f6f7074696f6e206d7573742062652077697468696e206f7074696f6e7320696e60008201527f20626f6f6b000000000000000000000000000000000000000000000000000000602082015250565b7f4d757374206861766520626574206f6e207468652077696e6e65720000000000600082015250565b7f4552433732313a206f70657261746f7220717565727920666f72206e6f6e657860008201527f697374656e7420746f6b656e0000000000000000000000000000000000000000602082015250565b7f526564756374696f6e20726174652063616e6e6f74206265206d6f726520746860008201527f616e203130302500000000000000000000000000000000000000000000000000602082015250565b7f4552433732313a20617070726f76652063616c6c6572206973206e6f74206f7760008201527f6e6572206e6f7220617070726f76656420666f7220616c6c0000000000000000602082015250565b7f4552433732313a2062616c616e636520717565727920666f7220746865207a6560008201527f726f206164647265737300000000000000000000000000000000000000000000602082015250565b7f4552433732313a206f776e657220717565727920666f72206e6f6e657869737460008201527f656e7420746f6b656e0000000000000000000000000000000000000000000000602082015250565b7f4552433732313a206d696e7420746f20746865207a65726f2061646472657373600082015250565b7f4552433732313a20617070726f76656420717565727920666f72206e6f6e657860008201527f697374656e7420746f6b656e0000000000000000000000000000000000000000602082015250565b7f4f776e61626c653a2063616c6c6572206973206e6f7420746865206f776e6572600082015250565b7f4552433732313a207472616e73666572206f6620746f6b656e2074686174206960008201527f73206e6f74206f776e0000000000000000000000000000000000000000000000602082015250565b7f4552433732314d657461646174613a2055524920717565727920666f72206e6f60008201527f6e6578697374656e7420746f6b656e0000000000000000000000000000000000602082015250565b7f4f6e6c792074686520626f6f6b69652063616e2070726f76696465207468652060008201527f626f6f6b732066756e64696e6700000000000000000000000000000000000000602082015250565b7f4552433732313a20617070726f76616c20746f2063757272656e74206f776e6560008201527f7200000000000000000000000000000000000000000000000000000000000000602082015250565b7f4d7573742068617665206d6f7265207468616e2031206f7074696f6e20746f2060008201527f626574206f6e0000000000000000000000000000000000000000000000000000602082015250565b7f4552433732313a207472616e736665722063616c6c6572206973206e6f74206f60008201527f776e6572206e6f7220617070726f766564000000000000000000000000000000602082015250565b7f4d7573742073656e6420656e6f7567682077656920746f2066756e642065616360008201527f68206f7074696f6e000000000000000000000000000000000000000000000000602082015250565b7f626574206d7573742062652077697468696e206f7074696f6e73000000000000600082015250565b6146ec81613d1c565b81146146f757600080fd5b50565b61470381613d2e565b811461470e57600080fd5b50565b61471a81613d3a565b811461472557600080fd5b50565b61473181613d44565b811461473c57600080fd5b50565b61474881613d90565b811461475357600080fd5b5056fea26469706673582212204e0858514b01370564f6de001b58e77b23595241ce81bc083b950fd762029a2d64736f6c63430008040033",
  "immutableReferences": {
    "546": [
      {
        "length": 32,
        "start": 4755
      }
    ]
  },
  "source": "//SPDX-License-Identifier: None\npragma solidity ^0.8.0;\n\nimport \"./Betting.sol\";\nimport \"@openzeppelin/contracts/access/Ownable.sol\";\n\ncontract MugenBet is Betting, Ownable{\n    uint constant private OPTIONS = 2;\n    uint immutable private reductionRate;\n    bytes32[] games;\n\n    event NewGame(bytes32);\n    event GameOver(bytes32);\n\n    constructor(uint _r) Ownable(){\n        reductionRate = _r;\n    }\n\n    /**\n    * @dev newGame function called by owner to create a game, and push it to array\n     */\n    function newGame()external onlyOwner{\n        bytes32 key = _newBook(address(this), OPTIONS, reductionRate);\n        games.push(key);\n        emit NewGame(key);\n    }\n\n    /**\n    * @dev settleGame called with a game's results\n    * @param _winner is the index of the winner of the game\n     */\n    function settleGame(bytes32 _book, uint _winner)external onlyOwner{\n        callBet(_book, _winner);\n        emit GameOver(_book);\n    }\n\n    /**\n    * @dev returns the first two amounts of a game for frontend\n    * @param _game is the game id\n    * @return both the amounts\n     */\n    function getFirsttwoAmounts(bytes32 _game)external view returns(uint,uint){\n        return(books[_game].optionsAmounts[0], books[_game].optionsAmounts[1]);\n    }\n}\n",
  "sourcePath": "/home/neymar/internals/carson-case/MugenBet/contracts/MugenBet.sol",
  "compiler": {
    "name": "solc",
    "version": "0.8.4+commit.c7e474f2.Emscripten.clang"
  },
  "schemaVersion": "3.3.4",
  "updatedAt": "2021-07-13T16:38:10.458Z",
  "networkType": "ethereum",
  "devdoc": {
    "kind": "dev",
    "methods": {
      "approve(address,uint256)": {
        "details": "See {IERC721-approve}."
      },
      "balanceOf(address)": {
        "details": "See {IERC721-balanceOf}."
      },
      "callBet(bytes32,uint256)": {
        "details": "Function to call the winner of a bet. Only callable by bookie.",
        "params": {
          "_book": "to call",
          "_winner": "must be within options"
        }
      },
      "fundBet(bytes32)": {
        "details": "fundBet function for a bookie only to add some liquidity to a bet. People need money to win at the start",
        "params": {
          "_book": "the book hash to fund"
        }
      },
      "getApproved(uint256)": {
        "details": "See {IERC721-getApproved}."
      },
      "getFirsttwoAmounts(bytes32)": {
        "details": "returns the first two amounts of a game for frontend",
        "params": {
          "_game": "is the game id"
        },
        "returns": {
          "_0": "both the amounts"
        }
      },
      "getOdds(bytes32,uint256,uint256)": {
        "details": "getOdds somewhat confusingly actually returns the payout amount, not the odds",
        "params": {
          "_amount": "is the amount to bet. Your odds depend on this",
          "_book": "is the book ",
          "_option": "is the option index to bet on"
        },
        "returns": {
          "_0": "payout if win"
        }
      },
      "isApprovedForAll(address,address)": {
        "details": "See {IERC721-isApprovedForAll}."
      },
      "name()": {
        "details": "See {IERC721Metadata-name}."
      },
      "newGame()": {
        "details": "newGame function called by owner to create a game, and push it to array"
      },
      "owner()": {
        "details": "Returns the address of the current owner."
      },
      "ownerOf(uint256)": {
        "details": "See {IERC721-ownerOf}."
      },
      "placeBet(bytes32,uint256)": {
        "details": "function to place a bet. Anyone can call on any book as long as the option is included in the book",
        "params": {
          "_book": "is the book hash",
          "_option": "is the option to bet on"
        }
      },
      "renounceOwnership()": {
        "details": "Leaves the contract without owner. It will not be possible to call `onlyOwner` functions anymore. Can only be called by the current owner. NOTE: Renouncing ownership will leave the contract without an owner, thereby removing any functionality that is only available to the owner."
      },
      "safeTransferFrom(address,address,uint256)": {
        "details": "See {IERC721-safeTransferFrom}."
      },
      "safeTransferFrom(address,address,uint256,bytes)": {
        "details": "See {IERC721-safeTransferFrom}."
      },
      "setApprovalForAll(address,bool)": {
        "details": "See {IERC721-setApprovalForAll}."
      },
      "settleBet(uint256)": {
        "details": "function to collect on a won bet",
        "params": {
          "ticket": "is the NFT id to turn in for the winnings"
        }
      },
      "settleGame(bytes32,uint256)": {
        "details": "settleGame called with a game's results",
        "params": {
          "_winner": "is the index of the winner of the game"
        }
      },
      "supportsInterface(bytes4)": {
        "details": "See {IERC165-supportsInterface}."
      },
      "symbol()": {
        "details": "See {IERC721Metadata-symbol}."
      },
      "tokenURI(uint256)": {
        "details": "See {IERC721Metadata-tokenURI}."
      },
      "transferFrom(address,address,uint256)": {
        "details": "See {IERC721-transferFrom}."
      },
      "transferOwnership(address)": {
        "details": "Transfers ownership of the contract to a new account (`newOwner`). Can only be called by the current owner."
      }
    },
    "version": 1
  },
  "userdoc": {
    "kind": "user",
    "methods": {},
    "version": 1
  }
}