{
  "contractName": "MugenBet",
  "abi": [
    {
      "inputs": [
        {
          "internalType": "uint256",
          "name": "_r",
          "type": "uint256"
        }
      ],
      "stateMutability": "nonpayable",
      "type": "constructor"
    },
    {
      "anonymous": false,
      "inputs": [
        {
          "indexed": true,
          "internalType": "address",
          "name": "owner",
          "type": "address"
        },
        {
          "indexed": true,
          "internalType": "address",
          "name": "approved",
          "type": "address"
        },
        {
          "indexed": true,
          "internalType": "uint256",
          "name": "tokenId",
          "type": "uint256"
        }
      ],
      "name": "Approval",
      "type": "event"
    },
    {
      "anonymous": false,
      "inputs": [
        {
          "indexed": true,
          "internalType": "address",
          "name": "owner",
          "type": "address"
        },
        {
          "indexed": true,
          "internalType": "address",
          "name": "operator",
          "type": "address"
        },
        {
          "indexed": false,
          "internalType": "bool",
          "name": "approved",
          "type": "bool"
        }
      ],
      "name": "ApprovalForAll",
      "type": "event"
    },
    {
      "anonymous": false,
      "inputs": [
        {
          "indexed": false,
          "internalType": "bytes32",
          "name": "",
          "type": "bytes32"
        }
      ],
      "name": "GameOver",
      "type": "event"
    },
    {
      "anonymous": false,
      "inputs": [
        {
          "indexed": false,
          "internalType": "uint256",
          "name": "",
          "type": "uint256"
        },
        {
          "indexed": false,
          "internalType": "address",
          "name": "",
          "type": "address"
        },
        {
          "indexed": false,
          "internalType": "bytes32",
          "name": "",
          "type": "bytes32"
        }
      ],
      "name": "NewBet",
      "type": "event"
    },
    {
      "anonymous": false,
      "inputs": [
        {
          "indexed": false,
          "internalType": "address",
          "name": "",
          "type": "address"
        },
        {
          "indexed": false,
          "internalType": "bytes32",
          "name": "",
          "type": "bytes32"
        }
      ],
      "name": "NewBook",
      "type": "event"
    },
    {
      "anonymous": false,
      "inputs": [
        {
          "indexed": false,
          "internalType": "bytes32",
          "name": "",
          "type": "bytes32"
        }
      ],
      "name": "NewGame",
      "type": "event"
    },
    {
      "anonymous": false,
      "inputs": [
        {
          "indexed": true,
          "internalType": "address",
          "name": "previousOwner",
          "type": "address"
        },
        {
          "indexed": true,
          "internalType": "address",
          "name": "newOwner",
          "type": "address"
        }
      ],
      "name": "OwnershipTransferred",
      "type": "event"
    },
    {
      "anonymous": false,
      "inputs": [
        {
          "indexed": true,
          "internalType": "address",
          "name": "from",
          "type": "address"
        },
        {
          "indexed": true,
          "internalType": "address",
          "name": "to",
          "type": "address"
        },
        {
          "indexed": true,
          "internalType": "uint256",
          "name": "tokenId",
          "type": "uint256"
        }
      ],
      "name": "Transfer",
      "type": "event"
    },
    {
      "inputs": [
        {
          "internalType": "address",
          "name": "to",
          "type": "address"
        },
        {
          "internalType": "uint256",
          "name": "tokenId",
          "type": "uint256"
        }
      ],
      "name": "approve",
      "outputs": [],
      "stateMutability": "nonpayable",
      "type": "function"
    },
    {
      "inputs": [
        {
          "internalType": "address",
          "name": "owner",
          "type": "address"
        }
      ],
      "name": "balanceOf",
      "outputs": [
        {
          "internalType": "uint256",
          "name": "",
          "type": "uint256"
        }
      ],
      "stateMutability": "view",
      "type": "function",
      "constant": true
    },
    {
      "inputs": [
        {
          "internalType": "uint256",
          "name": "",
          "type": "uint256"
        }
      ],
      "name": "betTicketFromNFT",
      "outputs": [
        {
          "internalType": "bytes32",
          "name": "book",
          "type": "bytes32"
        },
        {
          "internalType": "uint256",
          "name": "option",
          "type": "uint256"
        },
        {
          "internalType": "uint256",
          "name": "payout",
          "type": "uint256"
        }
      ],
      "stateMutability": "view",
      "type": "function",
      "constant": true
    },
    {
      "inputs": [
        {
          "internalType": "bytes32",
          "name": "",
          "type": "bytes32"
        }
      ],
      "name": "books",
      "outputs": [
        {
          "internalType": "address",
          "name": "bookie",
          "type": "address"
        },
        {
          "internalType": "uint256",
          "name": "reductionRate",
          "type": "uint256"
        },
        {
          "internalType": "uint256",
          "name": "optionsCount",
          "type": "uint256"
        },
        {
          "internalType": "uint256",
          "name": "totalBets",
          "type": "uint256"
        },
        {
          "internalType": "bool",
          "name": "complete",
          "type": "bool"
        },
        {
          "internalType": "uint256",
          "name": "winner",
          "type": "uint256"
        }
      ],
      "stateMutability": "view",
      "type": "function",
      "constant": true
    },
    {
      "inputs": [
        {
          "internalType": "bytes32",
          "name": "_book",
          "type": "bytes32"
        },
        {
          "internalType": "uint256",
          "name": "_winner",
          "type": "uint256"
        }
      ],
      "name": "callBet",
      "outputs": [],
      "stateMutability": "nonpayable",
      "type": "function"
    },
    {
      "inputs": [
        {
          "internalType": "bytes32",
          "name": "_book",
          "type": "bytes32"
        }
      ],
      "name": "fundBet",
      "outputs": [],
      "stateMutability": "payable",
      "type": "function",
      "payable": true
    },
    {
      "inputs": [
        {
          "internalType": "uint256",
          "name": "tokenId",
          "type": "uint256"
        }
      ],
      "name": "getApproved",
      "outputs": [
        {
          "internalType": "address",
          "name": "",
          "type": "address"
        }
      ],
      "stateMutability": "view",
      "type": "function",
      "constant": true
    },
    {
      "inputs": [
        {
          "internalType": "bytes32",
          "name": "_book",
          "type": "bytes32"
        },
        {
          "internalType": "uint256",
          "name": "_option",
          "type": "uint256"
        },
        {
          "internalType": "uint256",
          "name": "_amount",
          "type": "uint256"
        }
      ],
      "name": "getOdds",
      "outputs": [
        {
          "internalType": "uint256",
          "name": "",
          "type": "uint256"
        }
      ],
      "stateMutability": "view",
      "type": "function",
      "constant": true
    },
    {
      "inputs": [
        {
          "internalType": "address",
          "name": "owner",
          "type": "address"
        },
        {
          "internalType": "address",
          "name": "operator",
          "type": "address"
        }
      ],
      "name": "isApprovedForAll",
      "outputs": [
        {
          "internalType": "bool",
          "name": "",
          "type": "bool"
        }
      ],
      "stateMutability": "view",
      "type": "function",
      "constant": true
    },
    {
      "inputs": [],
      "name": "name",
      "outputs": [
        {
          "internalType": "string",
          "name": "",
          "type": "string"
        }
      ],
      "stateMutability": "view",
      "type": "function",
      "constant": true
    },
    {
      "inputs": [],
      "name": "oneHundredPercent",
      "outputs": [
        {
          "internalType": "uint256",
          "name": "",
          "type": "uint256"
        }
      ],
      "stateMutability": "view",
      "type": "function",
      "constant": true
    },
    {
      "inputs": [],
      "name": "owner",
      "outputs": [
        {
          "internalType": "address",
          "name": "",
          "type": "address"
        }
      ],
      "stateMutability": "view",
      "type": "function",
      "constant": true
    },
    {
      "inputs": [
        {
          "internalType": "uint256",
          "name": "tokenId",
          "type": "uint256"
        }
      ],
      "name": "ownerOf",
      "outputs": [
        {
          "internalType": "address",
          "name": "",
          "type": "address"
        }
      ],
      "stateMutability": "view",
      "type": "function",
      "constant": true
    },
    {
      "inputs": [
        {
          "internalType": "bytes32",
          "name": "_book",
          "type": "bytes32"
        },
        {
          "internalType": "uint256",
          "name": "_option",
          "type": "uint256"
        }
      ],
      "name": "placeBet",
      "outputs": [],
      "stateMutability": "payable",
      "type": "function",
      "payable": true
    },
    {
      "inputs": [],
      "name": "renounceOwnership",
      "outputs": [],
      "stateMutability": "nonpayable",
      "type": "function"
    },
    {
      "inputs": [
        {
          "internalType": "address",
          "name": "from",
          "type": "address"
        },
        {
          "internalType": "address",
          "name": "to",
          "type": "address"
        },
        {
          "internalType": "uint256",
          "name": "tokenId",
          "type": "uint256"
        }
      ],
      "name": "safeTransferFrom",
      "outputs": [],
      "stateMutability": "nonpayable",
      "type": "function"
    },
    {
      "inputs": [
        {
          "internalType": "address",
          "name": "from",
          "type": "address"
        },
        {
          "internalType": "address",
          "name": "to",
          "type": "address"
        },
        {
          "internalType": "uint256",
          "name": "tokenId",
          "type": "uint256"
        },
        {
          "internalType": "bytes",
          "name": "_data",
          "type": "bytes"
        }
      ],
      "name": "safeTransferFrom",
      "outputs": [],
      "stateMutability": "nonpayable",
      "type": "function"
    },
    {
      "inputs": [
        {
          "internalType": "address",
          "name": "operator",
          "type": "address"
        },
        {
          "internalType": "bool",
          "name": "approved",
          "type": "bool"
        }
      ],
      "name": "setApprovalForAll",
      "outputs": [],
      "stateMutability": "nonpayable",
      "type": "function"
    },
    {
      "inputs": [
        {
          "internalType": "uint256",
          "name": "ticket",
          "type": "uint256"
        }
      ],
      "name": "settleBet",
      "outputs": [],
      "stateMutability": "nonpayable",
      "type": "function"
    },
    {
      "inputs": [
        {
          "internalType": "bytes4",
          "name": "interfaceId",
          "type": "bytes4"
        }
      ],
      "name": "supportsInterface",
      "outputs": [
        {
          "internalType": "bool",
          "name": "",
          "type": "bool"
        }
      ],
      "stateMutability": "view",
      "type": "function",
      "constant": true
    },
    {
      "inputs": [],
      "name": "symbol",
      "outputs": [
        {
          "internalType": "string",
          "name": "",
          "type": "string"
        }
      ],
      "stateMutability": "view",
      "type": "function",
      "constant": true
    },
    {
      "inputs": [
        {
          "internalType": "uint256",
          "name": "tokenId",
          "type": "uint256"
        }
      ],
      "name": "tokenURI",
      "outputs": [
        {
          "internalType": "string",
          "name": "",
          "type": "string"
        }
      ],
      "stateMutability": "view",
      "type": "function",
      "constant": true
    },
    {
      "inputs": [
        {
          "internalType": "address",
          "name": "from",
          "type": "address"
        },
        {
          "internalType": "address",
          "name": "to",
          "type": "address"
        },
        {
          "internalType": "uint256",
          "name": "tokenId",
          "type": "uint256"
        }
      ],
      "name": "transferFrom",
      "outputs": [],
      "stateMutability": "nonpayable",
      "type": "function"
    },
    {
      "inputs": [
        {
          "internalType": "address",
          "name": "newOwner",
          "type": "address"
        }
      ],
      "name": "transferOwnership",
      "outputs": [],
      "stateMutability": "nonpayable",
      "type": "function"
    },
    {
      "inputs": [],
      "name": "newGame",
      "outputs": [],
      "stateMutability": "nonpayable",
      "type": "function"
    },
    {
      "inputs": [
        {
          "internalType": "uint256",
          "name": "_winner",
          "type": "uint256"
        }
      ],
      "name": "settleGame",
      "outputs": [],
      "stateMutability": "nonpayable",
      "type": "function"
    },
    {
      "inputs": [
        {
          "internalType": "bytes32",
          "name": "_book",
          "type": "bytes32"
        }
      ],
      "name": "getOptionsAmounts",
      "outputs": [
        {
          "internalType": "uint256[]",
          "name": "",
          "type": "uint256[]"
        }
      ],
      "stateMutability": "view",
      "type": "function",
      "constant": true
    },
    {
      "inputs": [
        {
          "internalType": "bytes32",
          "name": "_book",
          "type": "bytes32"
        }
      ],
      "name": "getOptionsDebt",
      "outputs": [
        {
          "internalType": "uint256[]",
          "name": "",
          "type": "uint256[]"
        }
      ],
      "stateMutability": "view",
      "type": "function",
      "constant": true
    },
    {
      "inputs": [
        {
          "internalType": "bytes32",
          "name": "_book",
          "type": "bytes32"
        }
      ],
      "name": "getBetTickets",
      "outputs": [
        {
          "internalType": "uint256[]",
          "name": "",
          "type": "uint256[]"
        }
      ],
      "stateMutability": "view",
      "type": "function",
      "constant": true
    },
    {
      "inputs": [
        {
          "internalType": "bytes32",
          "name": "_game",
          "type": "bytes32"
        }
      ],
      "name": "getFirsttwoAmounts",
      "outputs": [
        {
          "internalType": "uint256",
          "name": "",
          "type": "uint256"
        },
        {
          "internalType": "uint256",
          "name": "",
          "type": "uint256"
        }
      ],
      "stateMutability": "view",
      "type": "function",
      "constant": true
    }
  ],
  "bytecode": "0x60a060405260006006553480156200001657600080fd5b506040516200501f3803806200501f83398181016040528101906200003c91906200026b565b6040518060400160405280600e81526020017f42657474696e67205469636b65740000000000000000000000000000000000008152506040518060400160405280600381526020017f42455400000000000000000000000000000000000000000000000000000000008152508160009080519060200190620000c0929190620001a4565b508060019080519060200190620000d9929190620001a4565b5050506000620000ee6200019c60201b60201c565b905080600960006101000a81548173ffffffffffffffffffffffffffffffffffffffff021916908373ffffffffffffffffffffffffffffffffffffffff1602179055508073ffffffffffffffffffffffffffffffffffffffff16600073ffffffffffffffffffffffffffffffffffffffff167f8be0079c531659141344cd1fd0a4f28419497f9722a3daafe3b4186f6b6457e060405160405180910390a35080608081815250505062000320565b600033905090565b828054620001b290620002a1565b90600052602060002090601f016020900481019282620001d6576000855562000222565b82601f10620001f157805160ff191683800117855562000222565b8280016001018555821562000222579182015b828111156200022157825182559160200191906001019062000204565b5b50905062000231919062000235565b5090565b5b808211156200025057600081600090555060010162000236565b5090565b600081519050620002658162000306565b92915050565b6000602082840312156200027e57600080fd5b60006200028e8482850162000254565b91505092915050565b6000819050919050565b60006002820490506001821680620002ba57607f821691505b60208210811415620002d157620002d0620002d7565b5b50919050565b7f4e487b7100000000000000000000000000000000000000000000000000000000600052602260045260246000fd5b620003118162000297565b81146200031d57600080fd5b50565b608051614ce36200033c60003960006115f70152614ce36000f3fe6080604052600436106101cd5760003560e01c8063726e0320116100f757806395d89b4111610095578063caa865ee11610064578063caa865ee146106b7578063e985e9c5146106f4578063f2fde38b14610731578063f3118d8e1461075a576101cd565b806395d89b41146105fd578063a22cb46514610628578063b88d4fde14610651578063c87b56dd1461067a576101cd565b806381007391116100d1578063810073911461051a578063891607b514610557578063895f4c60146105945780638da5cb5b146105d2576101cd565b8063726e03201461049b5780637bab25d1146104c45780637d03f5f314610503576101cd565b806323b872dd1161016f57806342842e0e1161013e57806342842e0e146103e15780636352211e1461040a57806370a0823114610447578063715018a614610484576101cd565b806323b872dd146103275780632772bbc314610350578063312d7bbc1461038d57806334913f28146103b6576101cd565b8063095ea7b3116101ab578063095ea7b3146102775780630c0dee70146102a0578063154048ab146102e257806316fd381a146102fe576101cd565b806301ffc9a7146101d257806306fdde031461020f578063081812fc1461023a575b600080fd5b3480156101de57600080fd5b506101f960048036038101906101f4919061347f565b610776565b6040516102069190613bd3565b60405180910390f35b34801561021b57600080fd5b50610224610858565b6040516102319190613c40565b60405180910390f35b34801561024657600080fd5b50610261600480360381019061025c91906134d1565b6108ea565b60405161026e9190613ac0565b60405180910390f35b34801561028357600080fd5b5061029e6004803603810190610299919061338f565b61096f565b005b3480156102ac57600080fd5b506102c760048036038101906102c291906133cb565b610a87565b6040516102d996959493929190613b50565b60405180910390f35b6102fc60048036038101906102f791906133cb565b610af0565b005b34801561030a57600080fd5b50610325600480360381019061032091906134d1565b610c8b565b005b34801561033357600080fd5b5061034e60048036038101906103499190613289565b610dfc565b005b34801561035c57600080fd5b50610377600480360381019061037291906133cb565b610e5c565b6040516103849190613bb1565b60405180910390f35b34801561039957600080fd5b506103b460048036038101906103af91906134d1565b610eca565b005b3480156103c257600080fd5b506103cb611034565b6040516103d89190613fc2565b60405180910390f35b3480156103ed57600080fd5b5061040860048036038101906104039190613289565b61103a565b005b34801561041657600080fd5b50610431600480360381019061042c91906134d1565b61105a565b60405161043e9190613ac0565b60405180910390f35b34801561045357600080fd5b5061046e60048036038101906104699190613224565b61110c565b60405161047b9190613fc2565b60405180910390f35b34801561049057600080fd5b506104996111c4565b005b3480156104a757600080fd5b506104c260048036038101906104bd91906133f4565b611301565b005b3480156104d057600080fd5b506104eb60048036038101906104e691906134d1565b611547565b6040516104fa93929190613c09565b60405180910390f35b34801561050f57600080fd5b50610518611571565b005b34801561052657600080fd5b50610541600480360381019061053c9190613430565b611680565b60405161054e9190613fc2565b60405180910390f35b34801561056357600080fd5b5061057e600480360381019061057991906133cb565b6117d7565b60405161058b9190613bb1565b60405180910390f35b3480156105a057600080fd5b506105bb60048036038101906105b691906133cb565b611845565b6040516105c9929190614014565b60405180910390f35b3480156105de57600080fd5b506105e7611905565b6040516105f49190613ac0565b60405180910390f35b34801561060957600080fd5b5061061261192f565b60405161061f9190613c40565b60405180910390f35b34801561063457600080fd5b5061064f600480360381019061064a9190613353565b6119c1565b005b34801561065d57600080fd5b50610678600480360381019061067391906132d8565b611b42565b005b34801561068657600080fd5b506106a1600480360381019061069c91906134d1565b611ba4565b6040516106ae9190613c40565b60405180910390f35b3480156106c357600080fd5b506106de60048036038101906106d991906133cb565b611c4b565b6040516106eb9190613bb1565b60405180910390f35b34801561070057600080fd5b5061071b6004803603810190610716919061324d565b611cb9565b6040516107289190613bd3565b60405180910390f35b34801561073d57600080fd5b5061075860048036038101906107539190613224565b611d4d565b005b610774600480360381019061076f91906133f4565b611ef9565b005b60007f80ac58cd000000000000000000000000000000000000000000000000000000007bffffffffffffffffffffffffffffffffffffffffffffffffffffffff1916827bffffffffffffffffffffffffffffffffffffffffffffffffffffffff1916148061084157507f5b5e139f000000000000000000000000000000000000000000000000000000007bffffffffffffffffffffffffffffffffffffffffffffffffffffffff1916827bffffffffffffffffffffffffffffffffffffffffffffffffffffffff1916145b80610851575061085082611f09565b5b9050919050565b606060008054610867906142e4565b80601f0160208091040260200160405190810160405280929190818152602001828054610893906142e4565b80156108e05780601f106108b5576101008083540402835291602001916108e0565b820191906000526020600020905b8154815290600101906020018083116108c357829003601f168201915b5050505050905090565b60006108f582611f73565b610934576040517f08c379a000000000000000000000000000000000000000000000000000000000815260040161092b90613e62565b60405180910390fd5b6004600083815260200190815260200160002060009054906101000a900473ffffffffffffffffffffffffffffffffffffffff169050919050565b600061097a8261105a565b90508073ffffffffffffffffffffffffffffffffffffffff168373ffffffffffffffffffffffffffffffffffffffff1614156109eb576040517f08c379a00000000000000000000000000000000000000000000000000000000081526004016109e290613f22565b60405180910390fd5b8073ffffffffffffffffffffffffffffffffffffffff16610a0a611fdf565b73ffffffffffffffffffffffffffffffffffffffff161480610a395750610a3881610a33611fdf565b611cb9565b5b610a78576040517f08c379a0000000000000000000000000000000000000000000000000000000008152600401610a6f90613de2565b60405180910390fd5b610a828383611fe7565b505050565b60086020528060005260406000206000915090508060000160009054906101000a900473ffffffffffffffffffffffffffffffffffffffff16908060010154908060050154908060060154908060070160009054906101000a900460ff16908060080154905086565b6008600082815260200190815260200160002060000160009054906101000a900473ffffffffffffffffffffffffffffffffffffffff1673ffffffffffffffffffffffffffffffffffffffff163373ffffffffffffffffffffffffffffffffffffffff1614610b94576040517f08c379a0000000000000000000000000000000000000000000000000000000008152600401610b8b90613f02565b60405180910390fd5b600080600860008481526020019081526020016000206005015434610bb99190614165565b905060018111610bfe576040517f08c379a0000000000000000000000000000000000000000000000000000000008152600401610bf590613f82565b60405180910390fd5b60005b60016008600086815260200190815260200160002060050154610c2491906141f0565b811015610c58578183610c37919061410f565b9250610c45338583856120a0565b8080610c5090614347565b915050610c01565b50610c86338460086000878152602001908152602001600020600501548534610c8191906141f0565b6120a0565b505050565b600860006007600084815260200190815260200160002060000154815260200190815260200160002060070160009054906101000a900460ff16610d04576040517f08c379a0000000000000000000000000000000000000000000000000000000008152600401610cfb90613c62565b60405180910390fd5b600760008281526020019081526020016000206001015460086000600760008581526020019081526020016000206000015481526020019081526020016000206008015414610d88576040517f08c379a0000000000000000000000000000000000000000000000000000000008152600401610d7f90613d82565b60405180910390fd5b610d93333083610dfc565b610d9c8161230a565b3373ffffffffffffffffffffffffffffffffffffffff166108fc60076000848152602001908152602001600020600201549081150290604051600060405180830381858888f19350505050158015610df8573d6000803e3d6000fd5b5050565b610e0d610e07611fdf565b8261241b565b610e4c576040517f08c379a0000000000000000000000000000000000000000000000000000000008152600401610e4390613f62565b60405180910390fd5b610e578383836124f9565b505050565b606060086000838152602001908152602001600020600201805480602002602001604051908101604052809291908181526020018280548015610ebe57602002820191906000526020600020905b815481526020019060010190808311610eaa575b50505050509050919050565b610ed2611fdf565b73ffffffffffffffffffffffffffffffffffffffff16610ef0611905565b73ffffffffffffffffffffffffffffffffffffffff1614610f46576040517f08c379a0000000000000000000000000000000000000000000000000000000008152600401610f3d90613e82565b60405180910390fd5b610fa5600a6001600a80549050610f5d91906141f0565b81548110610f94577f4e487b7100000000000000000000000000000000000000000000000000000000600052603260045260246000fd5b906000526020600020015482611301565b7f91b1d9fd53e8776eb533dbd2e22df2706ae9f1d11352e0e452f300981f04f4c1600a6001600a80549050610fda91906141f0565b81548110611011577f4e487b7100000000000000000000000000000000000000000000000000000000600052603260045260246000fd5b90600052602060002001546040516110299190613bee565b60405180910390a150565b61271081565b61105583838360405180602001604052806000815250611b42565b505050565b6000806002600084815260200190815260200160002060009054906101000a900473ffffffffffffffffffffffffffffffffffffffff169050600073ffffffffffffffffffffffffffffffffffffffff168173ffffffffffffffffffffffffffffffffffffffff161415611103576040517f08c379a00000000000000000000000000000000000000000000000000000000081526004016110fa90613e22565b60405180910390fd5b80915050919050565b60008073ffffffffffffffffffffffffffffffffffffffff168273ffffffffffffffffffffffffffffffffffffffff16141561117d576040517f08c379a000000000000000000000000000000000000000000000000000000000815260040161117490613e02565b60405180910390fd5b600360008373ffffffffffffffffffffffffffffffffffffffff1673ffffffffffffffffffffffffffffffffffffffff168152602001908152602001600020549050919050565b6111cc611fdf565b73ffffffffffffffffffffffffffffffffffffffff166111ea611905565b73ffffffffffffffffffffffffffffffffffffffff1614611240576040517f08c379a000000000000000000000000000000000000000000000000000000000815260040161123790613e82565b60405180910390fd5b600073ffffffffffffffffffffffffffffffffffffffff16600960009054906101000a900473ffffffffffffffffffffffffffffffffffffffff1673ffffffffffffffffffffffffffffffffffffffff167f8be0079c531659141344cd1fd0a4f28419497f9722a3daafe3b4186f6b6457e060405160405180910390a36000600960006101000a81548173ffffffffffffffffffffffffffffffffffffffff021916908373ffffffffffffffffffffffffffffffffffffffff160217905550565b60086000838152602001908152602001600020600501548110611359576040517f08c379a000000000000000000000000000000000000000000000000000000000815260040161135090613cc2565b60405180910390fd5b6008600083815260200190815260200160002060000160009054906101000a900473ffffffffffffffffffffffffffffffffffffffff1673ffffffffffffffffffffffffffffffffffffffff163373ffffffffffffffffffffffffffffffffffffffff16146113fd576040517f08c379a00000000000000000000000000000000000000000000000000000000081526004016113f490613ea2565b60405180910390fd5b80600860008481526020019081526020016000206008018190555060016008600084815260200190815260200160002060070160006101000a81548160ff0219169083151502179055506000600860008481526020019081526020016000206003018281548110611497577f4e487b7100000000000000000000000000000000000000000000000000000000600052603260045260246000fd5b906000526020600020015460086000858152602001908152602001600020600601546114c391906141f0565b90506008600084815260200190815260200160002060000160009054906101000a900473ffffffffffffffffffffffffffffffffffffffff1673ffffffffffffffffffffffffffffffffffffffff166108fc829081150290604051600060405180830381858888f19350505050158015611541573d6000803e3d6000fd5b50505050565b60076020528060005260406000206000915090508060000154908060010154908060020154905083565b611579611fdf565b73ffffffffffffffffffffffffffffffffffffffff16611597611905565b73ffffffffffffffffffffffffffffffffffffffff16146115ed576040517f08c379a00000000000000000000000000000000000000000000000000000000081526004016115e490613e82565b60405180910390fd5b600061161b3360027f0000000000000000000000000000000000000000000000000000000000000000612755565b9050600a8190806001815401808255809150506001900390600052602060002001600090919091909150557f7f1103ce4bef3a709dfee84e767c11461b2485804077e344206d760d290dbf6e816040516116759190613bee565b60405180910390a150565b6000826008600086815260200190815260200160002060050154116116da576040517f08c379a00000000000000000000000000000000000000000000000000000000081526004016116d190613d62565b60405180910390fd5b600060086000868152602001908152602001600020905060008160060154141561170757829150506117d0565b61271080826002018681548110611747577f4e487b7100000000000000000000000000000000000000000000000000000000600052603260045260246000fd5b90600052602060002001548561175d919061410f565b612710868560060154611770919061410f565b61271061177d9190614196565b6117879190614165565b6117919190614196565b83600101546127106117a391906141f0565b866117ae9190614196565b6117b89190614196565b6117c29190614165565b6117cc9190614165565b9150505b9392505050565b60606008600083815260200190815260200160002060040180548060200260200160405190810160405280929190818152602001828054801561183957602002820191906000526020600020905b815481526020019060010190808311611825575b50505050509050919050565b60008060086000848152602001908152602001600020600201600081548110611897577f4e487b7100000000000000000000000000000000000000000000000000000000600052603260045260246000fd5b9060005260206000200154600860008581526020019081526020016000206002016001815481106118f1577f4e487b7100000000000000000000000000000000000000000000000000000000600052603260045260246000fd5b906000526020600020015491509150915091565b6000600960009054906101000a900473ffffffffffffffffffffffffffffffffffffffff16905090565b60606001805461193e906142e4565b80601f016020809104026020016040519081016040528092919081815260200182805461196a906142e4565b80156119b75780601f1061198c576101008083540402835291602001916119b7565b820191906000526020600020905b81548152906001019060200180831161199a57829003601f168201915b5050505050905090565b6119c9611fdf565b73ffffffffffffffffffffffffffffffffffffffff168273ffffffffffffffffffffffffffffffffffffffff161415611a37576040517f08c379a0000000000000000000000000000000000000000000000000000000008152600401611a2e90613d42565b60405180910390fd5b8060056000611a44611fdf565b73ffffffffffffffffffffffffffffffffffffffff1673ffffffffffffffffffffffffffffffffffffffff16815260200190815260200160002060008473ffffffffffffffffffffffffffffffffffffffff1673ffffffffffffffffffffffffffffffffffffffff16815260200190815260200160002060006101000a81548160ff0219169083151502179055508173ffffffffffffffffffffffffffffffffffffffff16611af1611fdf565b73ffffffffffffffffffffffffffffffffffffffff167f17307eab39ab6107e8899845ad3d59bd9653f200f220920489ca2b5937696c3183604051611b369190613bd3565b60405180910390a35050565b611b53611b4d611fdf565b8361241b565b611b92576040517f08c379a0000000000000000000000000000000000000000000000000000000008152600401611b8990613f62565b60405180910390fd5b611b9e84848484612b37565b50505050565b6060611baf82611f73565b611bee576040517f08c379a0000000000000000000000000000000000000000000000000000000008152600401611be590613ee2565b60405180910390fd5b6000611bf8612b93565b90506000815111611c185760405180602001604052806000815250611c43565b80611c2284612baa565b604051602001611c33929190613a9c565b6040516020818303038152906040525b915050919050565b606060086000838152602001908152602001600020600301805480602002602001604051908101604052809291908181526020018280548015611cad57602002820191906000526020600020905b815481526020019060010190808311611c99575b50505050509050919050565b6000600560008473ffffffffffffffffffffffffffffffffffffffff1673ffffffffffffffffffffffffffffffffffffffff16815260200190815260200160002060008373ffffffffffffffffffffffffffffffffffffffff1673ffffffffffffffffffffffffffffffffffffffff16815260200190815260200160002060009054906101000a900460ff16905092915050565b611d55611fdf565b73ffffffffffffffffffffffffffffffffffffffff16611d73611905565b73ffffffffffffffffffffffffffffffffffffffff1614611dc9576040517f08c379a0000000000000000000000000000000000000000000000000000000008152600401611dc090613e82565b60405180910390fd5b600073ffffffffffffffffffffffffffffffffffffffff168173ffffffffffffffffffffffffffffffffffffffff161415611e39576040517f08c379a0000000000000000000000000000000000000000000000000000000008152600401611e3090613ca2565b60405180910390fd5b8073ffffffffffffffffffffffffffffffffffffffff16600960009054906101000a900473ffffffffffffffffffffffffffffffffffffffff1673ffffffffffffffffffffffffffffffffffffffff167f8be0079c531659141344cd1fd0a4f28419497f9722a3daafe3b4186f6b6457e060405160405180910390a380600960006101000a81548173ffffffffffffffffffffffffffffffffffffffff021916908373ffffffffffffffffffffffffffffffffffffffff16021790555050565b611f05338383346120a0565b5050565b60007f01ffc9a7000000000000000000000000000000000000000000000000000000007bffffffffffffffffffffffffffffffffffffffffffffffffffffffff1916827bffffffffffffffffffffffffffffffffffffffffffffffffffffffff1916149050919050565b60008073ffffffffffffffffffffffffffffffffffffffff166002600084815260200190815260200160002060009054906101000a900473ffffffffffffffffffffffffffffffffffffffff1673ffffffffffffffffffffffffffffffffffffffff1614159050919050565b600033905090565b816004600083815260200190815260200160002060006101000a81548173ffffffffffffffffffffffffffffffffffffffff021916908373ffffffffffffffffffffffffffffffffffffffff160217905550808273ffffffffffffffffffffffffffffffffffffffff1661205a8361105a565b73ffffffffffffffffffffffffffffffffffffffff167f8c5be1e5ebec7d5bd14f71427d1e84f3dd0314c0f7b2291e5b200ac8c7c3b92560405160405180910390a45050565b816008600085815260200190815260200160002060050154116120f8576040517f08c379a00000000000000000000000000000000000000000000000000000000081526004016120ef90613fa2565b60405180910390fd5b61210484600654612d57565b6000612111848484611680565b9050604051806060016040528085815260200184815260200182815250600760006006548152602001908152602001600020600082015181600001556020820151816001015560408201518160020155905050600860008581526020019081526020016000206004016006549080600181540180825580915050600190039060005260206000200160009091909190915055816008600086815260200190815260200160002060060160008282546121c9919061410f565b925050819055508160086000868152602001908152602001600020600201848154811061221f577f4e487b7100000000000000000000000000000000000000000000000000000000600052603260045260246000fd5b906000526020600020016000828254612238919061410f565b925050819055508060086000868152602001908152602001600020600301848154811061228e577f4e487b7100000000000000000000000000000000000000000000000000000000600052603260045260246000fd5b9060005260206000200160008282546122a7919061410f565b925050819055507f8fc9c4f9d6b36166b3dc0bcc4428f588ac64079e040b0623594709ccaceeac0460065486866040516122e393929190613fdd565b60405180910390a1600660008154809291906122fe90614347565b91905055505050505050565b60006123158261105a565b905061232381600084612f25565b61232e600083611fe7565b6001600360008373ffffffffffffffffffffffffffffffffffffffff1673ffffffffffffffffffffffffffffffffffffffff168152602001908152602001600020600082825461237e91906141f0565b925050819055506002600083815260200190815260200160002060006101000a81549073ffffffffffffffffffffffffffffffffffffffff021916905581600073ffffffffffffffffffffffffffffffffffffffff168273ffffffffffffffffffffffffffffffffffffffff167fddf252ad1be2c89b69c2b068fc378daa952ba7f163c4a11628f55a4df523b3ef60405160405180910390a45050565b600061242682611f73565b612465576040517f08c379a000000000000000000000000000000000000000000000000000000000815260040161245c90613da2565b60405180910390fd5b60006124708361105a565b90508073ffffffffffffffffffffffffffffffffffffffff168473ffffffffffffffffffffffffffffffffffffffff1614806124df57508373ffffffffffffffffffffffffffffffffffffffff166124c7846108ea565b73ffffffffffffffffffffffffffffffffffffffff16145b806124f057506124ef8185611cb9565b5b91505092915050565b8273ffffffffffffffffffffffffffffffffffffffff166125198261105a565b73ffffffffffffffffffffffffffffffffffffffff161461256f576040517f08c379a000000000000000000000000000000000000000000000000000000000815260040161256690613ec2565b60405180910390fd5b600073ffffffffffffffffffffffffffffffffffffffff168273ffffffffffffffffffffffffffffffffffffffff1614156125df576040517f08c379a00000000000000000000000000000000000000000000000000000000081526004016125d690613d22565b60405180910390fd5b6125ea838383612f25565b6125f5600082611fe7565b6001600360008573ffffffffffffffffffffffffffffffffffffffff1673ffffffffffffffffffffffffffffffffffffffff168152602001908152602001600020600082825461264591906141f0565b925050819055506001600360008473ffffffffffffffffffffffffffffffffffffffff1673ffffffffffffffffffffffffffffffffffffffff168152602001908152602001600020600082825461269c919061410f565b92505081905550816002600083815260200190815260200160002060006101000a81548173ffffffffffffffffffffffffffffffffffffffff021916908373ffffffffffffffffffffffffffffffffffffffff160217905550808273ffffffffffffffffffffffffffffffffffffffff168473ffffffffffffffffffffffffffffffffffffffff167fddf252ad1be2c89b69c2b068fc378daa952ba7f163c4a11628f55a4df523b3ef60405160405180910390a4505050565b6000612710821061279b576040517f08c379a000000000000000000000000000000000000000000000000000000000815260040161279290613dc2565b60405180910390fd5b600183116127de576040517f08c379a00000000000000000000000000000000000000000000000000000000081526004016127d590613f42565b60405180910390fd5b606060006040518061012001604052808773ffffffffffffffffffffffffffffffffffffffff1681526020018581526020018667ffffffffffffffff811115612850577f4e487b7100000000000000000000000000000000000000000000000000000000600052604160045260246000fd5b60405190808252806020026020018201604052801561287e5781602001602082028036833780820191505090505b5081526020018667ffffffffffffffff8111156128c4577f4e487b7100000000000000000000000000000000000000000000000000000000600052604160045260246000fd5b6040519080825280602002602001820160405280156128f25781602001602082028036833780820191505090505b508152602001838152602001868152602001600081526020016000151581526020016000815250905060008685873342604051602001612936959493929190613a3d565b604051602081830303815290604052805190602001209050600073ffffffffffffffffffffffffffffffffffffffff166008600083815260200190815260200160002060000160009054906101000a900473ffffffffffffffffffffffffffffffffffffffff1673ffffffffffffffffffffffffffffffffffffffff16146129f3576040517f08c379a00000000000000000000000000000000000000000000000000000000081526004016129ea90613d02565b60405180910390fd5b816008600083815260200190815260200160002060008201518160000160006101000a81548173ffffffffffffffffffffffffffffffffffffffff021916908373ffffffffffffffffffffffffffffffffffffffff160217905550602082015181600101556040820151816002019080519060200190612a749291906130d4565b506060820151816003019080519060200190612a919291906130d4565b506080820151816004019080519060200190612aae9291906130d4565b5060a0820151816005015560c0820151816006015560e08201518160070160006101000a81548160ff02191690831515021790555061010082015181600801559050507fbc339e5933ac6a883787f7b4e2f57ebc7cdbbb4f6a23a30cd8c7b18c8acb593b8782604051612b22929190613b27565b60405180910390a18093505050509392505050565b612b428484846124f9565b612b4e84848484612f2a565b612b8d576040517f08c379a0000000000000000000000000000000000000000000000000000000008152600401612b8490613c82565b60405180910390fd5b50505050565b606060405180602001604052806000815250905090565b60606000821415612bf2576040518060400160405280600181526020017f30000000000000000000000000000000000000000000000000000000000000008152509050612d52565b600082905060005b60008214612c24578080612c0d90614347565b915050600a82612c1d9190614165565b9150612bfa565b60008167ffffffffffffffff811115612c66577f4e487b7100000000000000000000000000000000000000000000000000000000600052604160045260246000fd5b6040519080825280601f01601f191660200182016040528015612c985781602001600182028036833780820191505090505b5090505b60008514612d4b57600182612cb191906141f0565b9150600a85612cc091906143be565b6030612ccc919061410f565b60f81b818381518110612d08577f4e487b7100000000000000000000000000000000000000000000000000000000600052603260045260246000fd5b60200101907effffffffffffffffffffffffffffffffffffffffffffffffffffffffffffff1916908160001a905350600a85612d449190614165565b9450612c9c565b8093505050505b919050565b600073ffffffffffffffffffffffffffffffffffffffff168273ffffffffffffffffffffffffffffffffffffffff161415612dc7576040517f08c379a0000000000000000000000000000000000000000000000000000000008152600401612dbe90613e42565b60405180910390fd5b612dd081611f73565b15612e10576040517f08c379a0000000000000000000000000000000000000000000000000000000008152600401612e0790613ce2565b60405180910390fd5b612e1c60008383612f25565b6001600360008473ffffffffffffffffffffffffffffffffffffffff1673ffffffffffffffffffffffffffffffffffffffff1681526020019081526020016000206000828254612e6c919061410f565b92505081905550816002600083815260200190815260200160002060006101000a81548173ffffffffffffffffffffffffffffffffffffffff021916908373ffffffffffffffffffffffffffffffffffffffff160217905550808273ffffffffffffffffffffffffffffffffffffffff16600073ffffffffffffffffffffffffffffffffffffffff167fddf252ad1be2c89b69c2b068fc378daa952ba7f163c4a11628f55a4df523b3ef60405160405180910390a45050565b505050565b6000612f4b8473ffffffffffffffffffffffffffffffffffffffff166130c1565b156130b4578373ffffffffffffffffffffffffffffffffffffffff1663150b7a02612f74611fdf565b8786866040518563ffffffff1660e01b8152600401612f969493929190613adb565b602060405180830381600087803b158015612fb057600080fd5b505af1925050508015612fe157506040513d601f19601f82011682018060405250810190612fde91906134a8565b60015b613064573d8060008114613011576040519150601f19603f3d011682016040523d82523d6000602084013e613016565b606091505b5060008151141561305c576040517f08c379a000000000000000000000000000000000000000000000000000000000815260040161305390613c82565b60405180910390fd5b805181602001fd5b63150b7a0260e01b7bffffffffffffffffffffffffffffffffffffffffffffffffffffffff1916817bffffffffffffffffffffffffffffffffffffffffffffffffffffffff1916149150506130b9565b600190505b949350505050565b600080823b905060008111915050919050565b828054828255906000526020600020908101928215613110579160200282015b8281111561310f5782518255916020019190600101906130f4565b5b50905061311d9190613121565b5090565b5b8082111561313a576000816000905550600101613122565b5090565b600061315161314c84614062565b61403d565b90508281526020810184848401111561316957600080fd5b6131748482856142a2565b509392505050565b60008135905061318b81614c3a565b92915050565b6000813590506131a081614c51565b92915050565b6000813590506131b581614c68565b92915050565b6000813590506131ca81614c7f565b92915050565b6000815190506131df81614c7f565b92915050565b600082601f8301126131f657600080fd5b813561320684826020860161313e565b91505092915050565b60008135905061321e81614c96565b92915050565b60006020828403121561323657600080fd5b60006132448482850161317c565b91505092915050565b6000806040838503121561326057600080fd5b600061326e8582860161317c565b925050602061327f8582860161317c565b9150509250929050565b60008060006060848603121561329e57600080fd5b60006132ac8682870161317c565b93505060206132bd8682870161317c565b92505060406132ce8682870161320f565b9150509250925092565b600080600080608085870312156132ee57600080fd5b60006132fc8782880161317c565b945050602061330d8782880161317c565b935050604061331e8782880161320f565b925050606085013567ffffffffffffffff81111561333b57600080fd5b613347878288016131e5565b91505092959194509250565b6000806040838503121561336657600080fd5b60006133748582860161317c565b925050602061338585828601613191565b9150509250929050565b600080604083850312156133a257600080fd5b60006133b08582860161317c565b92505060206133c18582860161320f565b9150509250929050565b6000602082840312156133dd57600080fd5b60006133eb848285016131a6565b91505092915050565b6000806040838503121561340757600080fd5b6000613415858286016131a6565b92505060206134268582860161320f565b9150509250929050565b60008060006060848603121561344557600080fd5b6000613453868287016131a6565b93505060206134648682870161320f565b92505060406134758682870161320f565b9150509250925092565b60006020828403121561349157600080fd5b600061349f848285016131bb565b91505092915050565b6000602082840312156134ba57600080fd5b60006134c8848285016131d0565b91505092915050565b6000602082840312156134e357600080fd5b60006134f18482850161320f565b91505092915050565b60006135068383613a08565b60208301905092915050565b61351b81614224565b82525050565b61353261352d82614224565b614390565b82525050565b6000613543826140a3565b61354d81856140d1565b935061355883614093565b8060005b8381101561358957815161357088826134fa565b975061357b836140c4565b92505060018101905061355c565b5085935050505092915050565b61359f81614236565b82525050565b6135ae81614242565b82525050565b60006135bf826140ae565b6135c981856140e2565b93506135d98185602086016142b1565b6135e2816144ab565b840191505092915050565b60006135f8826140b9565b61360281856140f3565b93506136128185602086016142b1565b61361b816144ab565b840191505092915050565b6000613631826140b9565b61363b8185614104565b935061364b8185602086016142b1565b80840191505092915050565b60006136646014836140f3565b915061366f826144c9565b602082019050919050565b60006136876032836140f3565b9150613692826144f2565b604082019050919050565b60006136aa6026836140f3565b91506136b582614541565b604082019050919050565b60006136cd601d836140f3565b91506136d882614590565b602082019050919050565b60006136f0601c836140f3565b91506136fb826145b9565b602082019050919050565b60006137136074836140f3565b915061371e826145e2565b608082019050919050565b60006137366024836140f3565b91506137418261467d565b604082019050919050565b60006137596019836140f3565b9150613764826146cc565b602082019050919050565b600061377c6025836140f3565b9150613787826146f5565b604082019050919050565b600061379f601b836140f3565b91506137aa82614744565b602082019050919050565b60006137c2602c836140f3565b91506137cd8261476d565b604082019050919050565b60006137e56027836140f3565b91506137f0826147bc565b604082019050919050565b60006138086038836140f3565b91506138138261480b565b604082019050919050565b600061382b602a836140f3565b91506138368261485a565b604082019050919050565b600061384e6029836140f3565b9150613859826148a9565b604082019050919050565b60006138716020836140f3565b915061387c826148f8565b602082019050919050565b6000613894602c836140f3565b915061389f82614921565b604082019050919050565b60006138b76020836140f3565b91506138c282614970565b602082019050919050565b60006138da6022836140f3565b91506138e582614999565b604082019050919050565b60006138fd6029836140f3565b9150613908826149e8565b604082019050919050565b6000613920602f836140f3565b915061392b82614a37565b604082019050919050565b6000613943602d836140f3565b915061394e82614a86565b604082019050919050565b60006139666021836140f3565b915061397182614ad5565b604082019050919050565b60006139896026836140f3565b915061399482614b24565b604082019050919050565b60006139ac6031836140f3565b91506139b782614b73565b604082019050919050565b60006139cf6028836140f3565b91506139da82614bc2565b604082019050919050565b60006139f2601a836140f3565b91506139fd82614c11565b602082019050919050565b613a1181614298565b82525050565b613a2081614298565b82525050565b613a37613a3282614298565b6143b4565b82525050565b6000613a498288613521565b601482019150613a598287613a26565b602082019150613a698286613a26565b602082019150613a798285613521565b601482019150613a898284613a26565b6020820191508190509695505050505050565b6000613aa88285613626565b9150613ab48284613626565b91508190509392505050565b6000602082019050613ad56000830184613512565b92915050565b6000608082019050613af06000830187613512565b613afd6020830186613512565b613b0a6040830185613a17565b8181036060830152613b1c81846135b4565b905095945050505050565b6000604082019050613b3c6000830185613512565b613b4960208301846135a5565b9392505050565b600060c082019050613b656000830189613512565b613b726020830188613a17565b613b7f6040830187613a17565b613b8c6060830186613a17565b613b996080830185613596565b613ba660a0830184613a17565b979650505050505050565b60006020820190508181036000830152613bcb8184613538565b905092915050565b6000602082019050613be86000830184613596565b92915050565b6000602082019050613c0360008301846135a5565b92915050565b6000606082019050613c1e60008301866135a5565b613c2b6020830185613a17565b613c386040830184613a17565b949350505050565b60006020820190508181036000830152613c5a81846135ed565b905092915050565b60006020820190508181036000830152613c7b81613657565b9050919050565b60006020820190508181036000830152613c9b8161367a565b9050919050565b60006020820190508181036000830152613cbb8161369d565b9050919050565b60006020820190508181036000830152613cdb816136c0565b9050919050565b60006020820190508181036000830152613cfb816136e3565b9050919050565b60006020820190508181036000830152613d1b81613706565b9050919050565b60006020820190508181036000830152613d3b81613729565b9050919050565b60006020820190508181036000830152613d5b8161374c565b9050919050565b60006020820190508181036000830152613d7b8161376f565b9050919050565b60006020820190508181036000830152613d9b81613792565b9050919050565b60006020820190508181036000830152613dbb816137b5565b9050919050565b60006020820190508181036000830152613ddb816137d8565b9050919050565b60006020820190508181036000830152613dfb816137fb565b9050919050565b60006020820190508181036000830152613e1b8161381e565b9050919050565b60006020820190508181036000830152613e3b81613841565b9050919050565b60006020820190508181036000830152613e5b81613864565b9050919050565b60006020820190508181036000830152613e7b81613887565b9050919050565b60006020820190508181036000830152613e9b816138aa565b9050919050565b60006020820190508181036000830152613ebb816138cd565b9050919050565b60006020820190508181036000830152613edb816138f0565b9050919050565b60006020820190508181036000830152613efb81613913565b9050919050565b60006020820190508181036000830152613f1b81613936565b9050919050565b60006020820190508181036000830152613f3b81613959565b9050919050565b60006020820190508181036000830152613f5b8161397c565b9050919050565b60006020820190508181036000830152613f7b8161399f565b9050919050565b60006020820190508181036000830152613f9b816139c2565b9050919050565b60006020820190508181036000830152613fbb816139e5565b9050919050565b6000602082019050613fd76000830184613a17565b92915050565b6000606082019050613ff26000830186613a17565b613fff6020830185613512565b61400c60408301846135a5565b949350505050565b60006040820190506140296000830185613a17565b6140366020830184613a17565b9392505050565b6000614047614058565b90506140538282614316565b919050565b6000604051905090565b600067ffffffffffffffff82111561407d5761407c61447c565b5b614086826144ab565b9050602081019050919050565b6000819050602082019050919050565b600081519050919050565b600081519050919050565b600081519050919050565b6000602082019050919050565b600082825260208201905092915050565b600082825260208201905092915050565b600082825260208201905092915050565b600081905092915050565b600061411a82614298565b915061412583614298565b9250827fffffffffffffffffffffffffffffffffffffffffffffffffffffffffffffffff0382111561415a576141596143ef565b5b828201905092915050565b600061417082614298565b915061417b83614298565b92508261418b5761418a61441e565b5b828204905092915050565b60006141a182614298565b91506141ac83614298565b9250817fffffffffffffffffffffffffffffffffffffffffffffffffffffffffffffffff04831182151516156141e5576141e46143ef565b5b828202905092915050565b60006141fb82614298565b915061420683614298565b925082821015614219576142186143ef565b5b828203905092915050565b600061422f82614278565b9050919050565b60008115159050919050565b6000819050919050565b60007fffffffff0000000000000000000000000000000000000000000000000000000082169050919050565b600073ffffffffffffffffffffffffffffffffffffffff82169050919050565b6000819050919050565b82818337600083830152505050565b60005b838110156142cf5780820151818401526020810190506142b4565b838111156142de576000848401525b50505050565b600060028204905060018216806142fc57607f821691505b602082108114156143105761430f61444d565b5b50919050565b61431f826144ab565b810181811067ffffffffffffffff8211171561433e5761433d61447c565b5b80604052505050565b600061435282614298565b91507fffffffffffffffffffffffffffffffffffffffffffffffffffffffffffffffff821415614385576143846143ef565b5b600182019050919050565b600061439b826143a2565b9050919050565b60006143ad826144bc565b9050919050565b6000819050919050565b60006143c982614298565b91506143d483614298565b9250826143e4576143e361441e565b5b828206905092915050565b7f4e487b7100000000000000000000000000000000000000000000000000000000600052601160045260246000fd5b7f4e487b7100000000000000000000000000000000000000000000000000000000600052601260045260246000fd5b7f4e487b7100000000000000000000000000000000000000000000000000000000600052602260045260246000fd5b7f4e487b7100000000000000000000000000000000000000000000000000000000600052604160045260246000fd5b6000601f19601f8301169050919050565b60008160601b9050919050565b7f426574206d75737420626520636f6d706c657465000000000000000000000000600082015250565b7f4552433732313a207472616e7366657220746f206e6f6e20455243373231526560008201527f63656976657220696d706c656d656e7465720000000000000000000000000000602082015250565b7f4f776e61626c653a206e6577206f776e657220697320746865207a65726f206160008201527f6464726573730000000000000000000000000000000000000000000000000000602082015250565b7f57696e6e6572206d7573742062652077697468696e206f7074696f6e73000000600082015250565b7f4552433732313a20746f6b656e20616c7265616479206d696e74656400000000600082015250565b7f626f6f6b20616c7265616479206578697374732061742074686973206b65792c60008201527f20796f75277265206c696b656c7920747279696e6720746f206372656174652060208201527f6d756c7469706c65206f66207468652073616d6520626f6f6b7320696e206f6e60408201527f652074782e20446f6e277420646f20746869732e000000000000000000000000606082015250565b7f4552433732313a207472616e7366657220746f20746865207a65726f2061646460008201527f7265737300000000000000000000000000000000000000000000000000000000602082015250565b7f4552433732313a20617070726f766520746f2063616c6c657200000000000000600082015250565b7f6f7074696f6e206d7573742062652077697468696e206f7074696f6e7320696e60008201527f20626f6f6b000000000000000000000000000000000000000000000000000000602082015250565b7f4d757374206861766520626574206f6e207468652077696e6e65720000000000600082015250565b7f4552433732313a206f70657261746f7220717565727920666f72206e6f6e657860008201527f697374656e7420746f6b656e0000000000000000000000000000000000000000602082015250565b7f526564756374696f6e20726174652063616e6e6f74206265206d6f726520746860008201527f616e203130302500000000000000000000000000000000000000000000000000602082015250565b7f4552433732313a20617070726f76652063616c6c6572206973206e6f74206f7760008201527f6e6572206e6f7220617070726f76656420666f7220616c6c0000000000000000602082015250565b7f4552433732313a2062616c616e636520717565727920666f7220746865207a6560008201527f726f206164647265737300000000000000000000000000000000000000000000602082015250565b7f4552433732313a206f776e657220717565727920666f72206e6f6e657869737460008201527f656e7420746f6b656e0000000000000000000000000000000000000000000000602082015250565b7f4552433732313a206d696e7420746f20746865207a65726f2061646472657373600082015250565b7f4552433732313a20617070726f76656420717565727920666f72206e6f6e657860008201527f697374656e7420746f6b656e0000000000000000000000000000000000000000602082015250565b7f4f776e61626c653a2063616c6c6572206973206e6f7420746865206f776e6572600082015250565b7f4f6e6c792074686520626f6f6b69652063616e20736574746c6520746865206260008201527f6574000000000000000000000000000000000000000000000000000000000000602082015250565b7f4552433732313a207472616e73666572206f6620746f6b656e2074686174206960008201527f73206e6f74206f776e0000000000000000000000000000000000000000000000602082015250565b7f4552433732314d657461646174613a2055524920717565727920666f72206e6f60008201527f6e6578697374656e7420746f6b656e0000000000000000000000000000000000602082015250565b7f4f6e6c792074686520626f6f6b69652063616e2070726f76696465207468652060008201527f626f6f6b732066756e64696e6700000000000000000000000000000000000000602082015250565b7f4552433732313a20617070726f76616c20746f2063757272656e74206f776e6560008201527f7200000000000000000000000000000000000000000000000000000000000000602082015250565b7f4d7573742068617665206d6f7265207468616e2031206f7074696f6e20746f2060008201527f626574206f6e0000000000000000000000000000000000000000000000000000602082015250565b7f4552433732313a207472616e736665722063616c6c6572206973206e6f74206f60008201527f776e6572206e6f7220617070726f766564000000000000000000000000000000602082015250565b7f4d7573742073656e6420656e6f7567682077656920746f2066756e642065616360008201527f68206f7074696f6e000000000000000000000000000000000000000000000000602082015250565b7f626574206d7573742062652077697468696e206f7074696f6e73000000000000600082015250565b614c4381614224565b8114614c4e57600080fd5b50565b614c5a81614236565b8114614c6557600080fd5b50565b614c7181614242565b8114614c7c57600080fd5b50565b614c888161424c565b8114614c9357600080fd5b50565b614c9f81614298565b8114614caa57600080fd5b5056fea2646970667358221220db4055ff8c2f2c7ddf22ca56ef4fbe20ba42d23023e5f3f395637c7cec4638c764736f6c63430008040033",
  "immutableReferences": {
    "575": [
      {
        "length": 32,
        "start": 5623
      }
    ]
  },
  "source": "//SPDX-License-Identifier: None\npragma solidity ^0.8.0;\n\nimport \"./Betting.sol\";\nimport \"@openzeppelin/contracts/access/Ownable.sol\";\n\ncontract MugenBet is Betting, Ownable{\n    uint constant private OPTIONS = 2;\n    uint immutable private reductionRate;\n    bytes32[] games;\n\n    event NewGame(bytes32);\n    event GameOver(bytes32);\n\n    constructor(uint _r) Ownable(){\n        reductionRate = _r;\n    }\n\n    /**\n    * @dev newGame function called by owner to create a game, and push it to array\n     */\n    function newGame()external onlyOwner{\n        bytes32 key = _newBook(msg.sender, OPTIONS, reductionRate);\n        games.push(key);\n        emit NewGame(key);\n    }\n\n    /**\n    * @dev settleGame called with a game's results\n    * @param _winner is the index of the winner of the game\n     */\n    function settleGame(uint _winner)external onlyOwner{\n        callBet(games[games.length-1], _winner);\n        emit GameOver(games[games.length-1]);\n    }\n\n    /// @dev bellow the next three are getter functions for book array\n    function getOptionsAmounts(bytes32 _book) external view returns(uint[] memory) {\n        return books[_book].optionsAmounts;\n    }\n\n    function getOptionsDebt(bytes32 _book) external view returns(uint[] memory){\n        return books[_book].optionsDebt;\n    }\n\n    function getBetTickets(bytes32 _book) external view returns(uint[] memory){\n        return books[_book].betTickets;\n    }\n\n    /**\n    * @dev returns the first two amounts of a game for frontend\n    * @param _game is the game id\n    * @return both the amounts\n     */\n    function getFirsttwoAmounts(bytes32 _game)external view returns(uint,uint){\n        return(books[_game].optionsAmounts[0], books[_game].optionsAmounts[1]);\n    }\n}",
  "sourcePath": "/home/neymar/internals/carson-case/MugenBet/contracts/MugenBet.sol",
  "compiler": {
    "name": "solc",
    "version": "0.8.4+commit.c7e474f2.Emscripten.clang"
  },
  "schemaVersion": "3.3.4",
  "updatedAt": "2021-07-16T06:15:35.830Z",
  "networkType": "ethereum",
  "devdoc": {
    "kind": "dev",
    "methods": {
      "approve(address,uint256)": {
        "details": "See {IERC721-approve}."
      },
      "balanceOf(address)": {
        "details": "See {IERC721-balanceOf}."
      },
      "callBet(bytes32,uint256)": {
        "details": "Function to call the winner of a bet. Only callable by bookie.",
        "params": {
          "_book": "to call",
          "_winner": "must be within options"
        }
      },
      "fundBet(bytes32)": {
        "details": "fundBet function for a bookie only to add some liquidity to a bet. People need money to win at the start",
        "params": {
          "_book": "the book hash to fund"
        }
      },
      "getApproved(uint256)": {
        "details": "See {IERC721-getApproved}."
      },
      "getFirsttwoAmounts(bytes32)": {
        "details": "returns the first two amounts of a game for frontend",
        "params": {
          "_game": "is the game id"
        },
        "returns": {
          "_0": "both the amounts"
        }
      },
      "getOdds(bytes32,uint256,uint256)": {
        "details": "getOdds somewhat confusingly actually returns the payout amount, not the odds",
        "params": {
          "_amount": "is the amount to bet. Your odds depend on this",
          "_book": "is the book ",
          "_option": "is the option index to bet on"
        },
        "returns": {
          "_0": "payout if win"
        }
      },
      "getOptionsAmounts(bytes32)": {
        "details": "bellow the next three are getter functions for book array"
      },
      "isApprovedForAll(address,address)": {
        "details": "See {IERC721-isApprovedForAll}."
      },
      "name()": {
        "details": "See {IERC721Metadata-name}."
      },
      "newGame()": {
        "details": "newGame function called by owner to create a game, and push it to array"
      },
      "owner()": {
        "details": "Returns the address of the current owner."
      },
      "ownerOf(uint256)": {
        "details": "See {IERC721-ownerOf}."
      },
      "placeBet(bytes32,uint256)": {
        "details": "function to place a bet. Anyone can call on any book as long as the option is included in the book",
        "params": {
          "_book": "is the book hash",
          "_option": "is the option to bet on"
        }
      },
      "renounceOwnership()": {
        "details": "Leaves the contract without owner. It will not be possible to call `onlyOwner` functions anymore. Can only be called by the current owner. NOTE: Renouncing ownership will leave the contract without an owner, thereby removing any functionality that is only available to the owner."
      },
      "safeTransferFrom(address,address,uint256)": {
        "details": "See {IERC721-safeTransferFrom}."
      },
      "safeTransferFrom(address,address,uint256,bytes)": {
        "details": "See {IERC721-safeTransferFrom}."
      },
      "setApprovalForAll(address,bool)": {
        "details": "See {IERC721-setApprovalForAll}."
      },
      "settleBet(uint256)": {
        "details": "function to collect on a won bet",
        "params": {
          "ticket": "is the NFT id to turn in for the winnings"
        }
      },
      "settleGame(uint256)": {
        "details": "settleGame called with a game's results",
        "params": {
          "_winner": "is the index of the winner of the game"
        }
      },
      "supportsInterface(bytes4)": {
        "details": "See {IERC165-supportsInterface}."
      },
      "symbol()": {
        "details": "See {IERC721Metadata-symbol}."
      },
      "tokenURI(uint256)": {
        "details": "See {IERC721Metadata-tokenURI}."
      },
      "transferFrom(address,address,uint256)": {
        "details": "See {IERC721-transferFrom}."
      },
      "transferOwnership(address)": {
        "details": "Transfers ownership of the contract to a new account (`newOwner`). Can only be called by the current owner."
      }
    },
    "version": 1
  },
  "userdoc": {
    "kind": "user",
    "methods": {},
    "version": 1
  }
}